:020000040800F2
:10000000108400209D010008616100085F4D000818
:10001000D55F0008E116000813A0000800000000EA
:10002000000000000000000000000000D58900086A
:100030008125000800000000A9650008439400081D
:10004000B7010008B7010008B7010008B7010008B0
:10005000B7010008B7010008B7010008B7010008A0
:10006000B7010008B7010008B7010008B701000890
:10007000B7010008B7010008B7010008B701000880
:10008000B7010008B7010008B7010008B701000870
:10009000B7010008B7010008B7010008B701000860
:1000A000B7010008B7010008B7010008B701000850
:1000B00031950008B7010008B7010008B701000832
:1000C000B7010008B7010008B7010008B701000830
:1000D000B7010008B7010008B7010008B701000820
:1000E000B7010008B7010008B7010008B701000810
:1000F000B7010008B7010008B7010008B701000800
:10010000B7010008B7010008B7010008B7010008EF
:10011000B7010008B7010008B7010008B7010008DF
:10012000B7010008B7010008B7010008B7010008CF
:10013000B7010008B7010008B7010008B7010008BF
:10014000B7010008B7010008B7010008B7010008AF
:10015000B7010008B7010008B7010008B70100089F
:10016000B7010008B7010008B7010008B70100088F
:10017000B7010008B7010008B7010008000000003F
:10018000B7010008B7010008DFF80CD000F0CAFB87
:100190000048004771CE00081084002006488047C0
:1001A00006480047FEE7FEE7FEE7FEE7FEE7FEE75C
:1001B000FEE7FEE7FEE7FEE7DD94000889010008A0
:1001C0002DE9F05F0546002092469B46884606468C
:1001D000814640241BE0284641464746224600F01F
:1001E00006FA53465A46C01A914110D31146184692
:1001F000224600F0EDF92D1A67EB01084F46224622
:100200000120002100F0E4F917EB00094E41201E07
:10021000A4F10104DFDC484631462A464346BDE8E6
:10022000F09F0000004870479006010840EA010373
:100230009B0703D009E008C9121F08C0042AFAD29C
:1002400003E011F8013B00F8013B521EF9D2704760
:10025000D2B201E000F8012B491EFBD27047002208
:10026000F6E710B513460A4604461946FFF7F0FFB5
:10027000204610BD421C10F8011B0029FBD1801A3A
:100280007047034611F8012B00F8012B002AF9D121
:100290001846704770B506460AF032F904680546FC
:1002A0000A220021304600F0B2F92C6070BD70B512
:1002B00006460AF025F9046805460A220021304660
:1002C00000F0A5F92C6070BD2DE9FE4F81EA030412
:1002D00004F0004421F0004100944FF0000B23F0A3
:1002E000004350EA01045ED052EA03045BD0C3F33A
:1002F0000A54C1F30A552C44A4F2F3340194A0FB30
:100300000254C1F3130141F48011C3F3130343F406
:10031000801301FB024400FB034E840A970A44EA5F
:10032000815447EA8357A4FB076802958D0A05FBB1
:1003300007854FEA932C04FB0C542705029D4FEAD6
:10034000065847EA1637B5EB08056EEB070C870E23
:10035000920E47EA811742EA8312A7FB0201B6EB2D
:100360000B0164EB00042B0D43EA0C335E1844EBE5
:100370001C50DA465146E7FB0201C5F313044FEA6D
:100380000B3343EA14534FEA0432019C43EA060359
:10039000A4F10C040294009CCDE900B400F0B5F97E
:1003A00003B0BDE8F08F00200146F9E72DE9F04DDC
:1003B00081EA030404F0004B21F0004514464FF09D
:1003C000000A23F0004150EA050220D054EA01025D
:1003D0001DD0C5F30A570246C5F31303C1F313003A
:1003E000C1F30A5640F4801543F48013A7EB0608C6
:1003F000101BD64608F2FD3873EB050002D308F156
:10040000010801E092185B41B8F1000F03DA002007
:100410000146BDE8F08D00204FF480110646844669
:100420000EE0171B73EB050705D3121B63EB0503E7
:1004300006434CEA010C49084FEA300092185B4130
:1004400050EA0107EDD152EA030012D082EA04001B
:1004500083EA0501084305D0101BAB4106D20122F7
:10046000002306E000224FF0004302E06FF001029B
:1004700053101AEB06004CEB085110EB0A0041EB4D
:100480000B01BDE8F04D00F031B90EB540F233413B
:1004900002910021CDE900110A460B4600F035F922
:1004A00003B000BD70B5C1F30A5201F0004500244D
:1004B000C1F3130140F2FF3341F480119A4201DA93
:1004C000002070BD40F233439A42A2F2334203DC73
:1004D000524200F08CF800E090402C43F1D04042B2
:1004E00070BDC1F30A5210B5C1F3130140F2FF33DE
:1004F00041F480119A4201DA002010BD40F23343EA
:100500009A42A2F2334203DC524200F070F810BD6E
:10051000904010BD00F0004230F000400AD0C10D04
:1005200001F56071C0F3160042EA0151C2084007AC
:1005300011437047002001467047000030B5041E8B
:1005400071F1000404DB4FF00044404264EB010110
:10055000141E73F1000405DB1C464FF000435242A9
:1005600063EB0403994208BF904230BD01F00043A1
:1005700030B421F0004150EA010206D00A0DA2F584
:100580006072C1F31301002A02DC30BC0020704706
:10059000440F44EAC104C100E01830BC00EBC25073
:1005A00000F06DB830B50B46014600202022012432
:1005B00009E021FA02F59D4205D303FA02F5491B31
:1005C00004FA02F52844151EA2F10102F1DC30BD47
:1005D000202A04DB203A00FA02F100207047914003
:1005E000C2F1200320FA03F3194390407047202AF8
:1005F00004DB203A21FA02F00021704721FA02F3CD
:10060000D040C2F1200291400843194670472DE9BD
:10061000F04791460F4680460446002614F8015BD9
:100620002DB1FFF7FFFD0068405DC007F6D12B2D0F
:1006300002D02D2D18D0641E4A463946204600F0BF
:1006400095F927B13968A14201D1C7F80080710539
:100650004FF002040BD54042002803DD09F050FFA3
:100660000460A007BDE8F08746F48066E4E7002850
:10067000F8DA09F045FF04606FF00040F2E7002966
:10068000A8BF7047401C490008BF20F00100704718
:1006900010B4B0FA80FC00FA0CF050EA010404BF78
:1006A00010BC704749B1CCF1200421FA04F411FACE
:1006B0000CF118BF012121430843A3EB0C01CB1D12
:1006C0004FEA00614FEA102042BF002010BC704783
:1006D00000EBC35010440029A4BF10BC7047401C5D
:1006E000490008BF20F0010010BC704710B5141E6F
:1006F00073F1000408DA401C41F1000192185B41DB
:100700001A4301D120F0010010BD2DE9F04D9246B1
:100710009B4611B1B1FA81F202E0B0FA80F22032C8
:100720009046FFF755FF04460F4640EA0A0041EAAB
:100730000B0153465A46084313D0114653EA0100B1
:1007400019D0C8F140025046FFF751FF05460E464A
:10075000504659464246FFF73BFF084305D001206B
:1007600004E020463946BDE8F08D0020054346EA06
:10077000E0762C4337430A986305E40AA0EB0800AF
:100780000022FD0A44EA47540A3002D500200146FF
:10079000E9E7010510196941DDE9084500196941DA
:1007A000BDE8F04DA2E72DE9FE4F804681EA030047
:1007B000C00F0C46009021F0004123F00045B8EB3B
:1007C0000200A94105D24046214690461C460B46F0
:1007D000024623F00040104347D0270DC7F30A001C
:1007E000C3F30A510290401A019040286BDAC3F318
:1007F000130040F4801B0098924620B10023D2EBF6
:10080000030A63EB0B0B01985946C0F140025046B6
:10081000FFF7DEFE06460D4650465946019A00F0A7
:1008200093F810EB08006141002487EA115284EA32
:10083000E7731A4340D0009A62B3019A012A4FEA43
:10084000075215DC001B61EB02014FF0004202EA87
:100850000752CDE90042001C41F5801132462B467B
:10086000FFF753FF03B0BDE8F08F40462146F9E79C
:10087000001B61EB0201001C41F5801300185B4175
:100880002018A2F5001747EB030140EAD570B6190E
:100890006D4111E06D084FEA360645EAC0754FEA32
:1008A0000752001B61EB0201001C41F58011490851
:1008B0004FEA30000019514132462B4603B0BDE8E3
:1008C000F04FFFF713BF0098012240000023D0EB48
:1008D000020263EBE073009821464FEAE074B8EB44
:1008E000000061EB0401E9E783F000435BE781F07E
:1008F000004158E7C1F30A52C1F3130140F2FF333C
:1009000041F480119A4202DA00200146704740F219
:1009100033439A42A2F2334202DC5242FFF767BEEF
:10092000FFF756BE064C074D06E0E06840F00103B5
:1009300094E8070098471034AC42F6D3FFF728FC40
:100940007807010898070108202A06DBCB17203A10
:1009500041FA02F043EAE07306E041FA02F3D040C4
:10096000C2F1200291400843194670472DE9F05F1B
:1009700082460078002715468B460AF10104B946E5
:10098000302801D09DB113E014F8010B012778281D
:1009900003D0582801D045B10AE00DB1102D07D180
:1009A0000027102514F8010B02E0082500E00A25B5
:1009B0000026B0460EE005FB080005FB06F1012706
:1009C00001EB10461FFA80F8B6F5803F00D3B94618
:1009D00014F8010B294600F018F80028EBDABBF1F7
:1009E000000F05D00FB1641E00E05446CBF8004064
:1009F000B9F1000F06D009F083FD02210160C81E85
:100A0000BDE8F09F48EA0640FAE73A2800D23038BD
:100A100020F02002412A01D3A2F13700884201D3FD
:100A20004FF0FF30704770B58D1810F8014B14F07F
:100A3000030201D110F8012B231106D110F8013B5C
:100A400003E010F8016B01F8016B521EF9D1ABB154
:100A500010F8012B04F00C048A1A0C2C03D0A2EB22
:100A600084129B1C08E010F8014BA2EB0422F8E76B
:100A700012F8014B01F8014B5B1EF9D5A942D4D302
:100A8000002070BDF0B595B0002007464FEA0D0676
:100A900026F81070401C1028FAD300200DF1200514
:100AA00025F81070401C1028FAD3FF4C002000BF1E
:100AB00024F81070401C0C28FAD3002004EB4001ED
:100AC0008F84401C0828F9D34FF63B70CDE91007FE
:100AD00010A9F648129702F013FDFF20CDE9100788
:100AE00010A9F348129702F00BFDF2480121816131
:100AF0008100816100BF00BF00BF00BF00BF00BF19
:100B000000BF00BF00BF00BF4FF48022826100BF62
:100B100000BF00BF00BF00BF00BF00BF00BF00BFDD
:100B200000BF0822826100BF00BF00BF00BF00BF3E
:100B300000BF00BF00BF00BF00BF816100BF00BF9A
:100B400000BF00BF00BF00BF00BF00BF00BF00BFAD
:100B5000826100BF00BF00BF00BF00BF00BF00BF79
:100B600000BF00BF00BF816100BF00BF00BF00BF6A
:100B700000BF00BF00BF00BF00BF00BF826100BF59
:100B800000BF00BF00BF00BF00BF00BF00BF00BF6D
:100B900000BF816100BF00BF00BF00BF00BF00BF3A
:100BA00000BF00BF00BF00BF826100BF00BF00BF29
:100BB00000BF00BF00BF00BF00BF00BF00BF81611A
:100BC00000BF00BF00BF00BF00BF00BF00BF00BF2D
:100BD00000BF00BF826100BF00BF00BF00BF00BFF9
:100BE00000BF00BF00BF00BF00BF816100BF00BFEA
:100BF00000BF00BF00BF00BF00BF00BF00BF00BFFD
:100C0000826100BF00BF00BF00BF00BF00BF00BFC8
:100C100000BF00BF00BF816100BF00BF00BF00BFB9
:100C200000BF00BF00BF00BF00BF00BF826100BFA8
:100C300000BF00BF00BF00BF00BF00BF00BF00BFBC
:100C400000BF9A4B10331F68ADF80070984F1037F3
:100C5000D7F800C0ADF820C0816100BF00BF00BF61
:100C600000BF00BF00BF00BF00BF00BF00BF826168
:100C700000BF00BF00BF00BF00BF00BF00BF00BF7C
:100C800000BF00BFD3F800C0ADF802C0D7F800C065
:100C9000ADF822C0816100BF00BF00BF00BF00BF30
:100CA00000BF00BF00BF00BF00BF826100BF00BF28
:100CB00000BF00BF00BF00BF00BF00BF00BF00BF3C
:100CC000D3F800C0ADF804C0D7F800C0ADF824C018
:100CD000816100BF00BF00BF00BF00BF00BF00BFF9
:100CE00000BF00BF00BF826100BF00BF00BF00BFE8
:100CF00000BF00BF00BF00BF00BF00BFD3F800C0EF
:100D0000ADF806C0D7F800C0ADF826C0816100BFBD
:100D100000BF00BF00BF00BF00BF00BF00BF00BFDB
:100D200000BF826100BF00BF00BF00BF00BF00BFA7
:100D300000BF00BF00BF00BFD3F800C0ADF808C0BF
:100D4000D7F800C0ADF828C0816100BF00BF00BF68
:100D500000BF00BF00BF00BF00BF00BF00BF826177
:100D600000BF00BF00BF00BF00BF00BF00BF00BF8B
:100D700000BF00BFD3F800C0ADF80AC0D7F800C06C
:100D8000ADF82AC0816100BF00BF00BF00BF00BF37
:100D900000BF00BF00BF00BF00BF826100BF00BF37
:100DA00000BF00BF00BF00BF00BF00BF00BF00BF4B
:100DB000D3F800C0ADF80CC0D7F800C0ADF82CC017
:100DC000816100BF00BF00BF00BF00BF00BF00BF08
:100DD00000BF00BF00BF826100BF00BF00BF00BFF7
:100DE00000BF00BF00BF00BF00BF00BFD3F800C0FE
:100DF000ADF80EC0D7F800C0ADF82EC0816100BFBD
:100E000000BF00BF00BF00BF00BF00BF00BF00BFEA
:100E100000BF826100BF00BF00BF00BF00BF00BFB6
:100E200000BF00BF00BF00BFD3F800C0ADF810C0C6
:100E3000D7F800C0ADF830C0816100BF00BF00BF6F
:100E400000BF00BF00BF00BF00BF00BF00BF826186
:100E500000BF00BF00BF00BF00BF00BF00BF00BF9A
:100E600000BF00BFD3F800C0ADF812C0D7F800C073
:100E7000ADF832C0816100BF00BF00BF00BF00BF3E
:100E800000BF00BF00BF00BF00BF826100BF00BF46
:100E900000BF00BF00BF00BF00BF00BF00BF00BF5A
:100EA000D3F800C008E000006814002000040240ED
:100EB0000008024000000240ADF814C0D7F800C09E
:100EC000ADF834C0816100BF00BF00BF00BF00BFEC
:100ED00000BF00BF00BF00BF00BF826100BF00BFF6
:100EE00000BF00BF00BF00BF00BF00BF00BF00BF0A
:100EF000D3F800C0ADF816C0D7F800C0ADF836C0C2
:100F0000816100BF00BF00BF00BF00BF00BF00BFC6
:100F100000BF00BF00BF826100BF00BF00BF00BFB5
:100F200000BF00BF00BF00BF00BF00BFD3F800C0BC
:100F3000ADF818C0D7F800C0ADF838C0816100BF67
:100F400000BF00BF00BF00BF00BF00BF00BF00BFA9
:100F500000BF826100BF00BF00BF00BF00BF00BF75
:100F600000BF00BF00BF00BFD3F800C0ADF81AC07B
:100F7000D7F800C0ADF83AC0816100BF00BF00BF24
:100F800000BF00BF00BF00BF00BF00BF00BF826145
:100F900000BF00BF00BF00BF00BF00BF00BF00BF59
:100FA00000BF00BFD3F800C0ADF81CC0D7F800C028
:100FB000ADF83CC0816100BF00BF00BF00BF00BFF3
:100FC00000BF00BF00BF00BF00BF826100BF00BF05
:100FD00000BF00BF00BF00BF00BF00BF00BF00BF19
:100FE0001A68ADF81E203A68ADF83E20816100BF56
:100FF00000BF00BF00BF00BF00BF00BF00BF00BFF9
:1010000000BF0421816100BF00BF00BF00BF00BF5F
:1010100000BF00BF00BF00BF00BF4FF4803181613F
:101020000122002349100F465FF0000036F810C07F
:1010300032EA0C0C05D134F813C04CEA070C24F842
:1010400013C07F08401C1028F0D35200012B11D090
:10105000042B12D05B1C0C2BE5D301260022084682
:10106000002304EB420700BF35F813C036EA0C0C2E
:1010700006D00BE052000223D5E792000523D2E709
:10108000B7F824C04CEA000CA7F824C040085B1C49
:10109000102BE9D37600521C082AE0D315B0F0BD1E
:1010A00010B50A4900223024312344280BD00B709C
:1010B000521CD2B2491C062AF7D300F009F805F0F9
:1010C00061F8002010BD0C70F2E70000C90D00208F
:1010D000274908B5274891F845304279312B35D05A
:1010E00002F0FE02427191F84620312A427930D056
:1010F00002F0FD02427191F84720312A42792BD04B
:1011000002F0FB02427191F84820312A427926D040
:1011100002F0F702427191F84920312A427921D038
:1011200002F0EF02427191F84A103129D1B21CD07D
:1011300001F0DF0141714FF47A700E4A00900123F3
:10114000521D44210C4802F04BFB08BD42F0010245
:10115000C8E742F00202CDE742F00402D2E742F0D3
:101160000802D7E742F01002DCE741F02001E1E796
:10117000840D002010000020041D0020F0B5DFEDDC
:101180003A0A059D394C0646C5ED000A94F85C7094
:10119000374C002004EBC204413F04EB83020B2FC9
:1011A0002BD2DFE807F0063A3D3D47513D4751510C
:1011B0005100106E312E21D0322E22D0332E1CD170
:1011C000D2F8C000002818D000EE100ADFED291A6E
:1011D0002A4AB8EE400A81EE801A9FED270A21EED6
:1011E000000A10EE101A85ED000A914212DDDFEDC3
:1011F000240A30EE600A85ED000AF0BDD2F89000B6
:10120000F0BDD2F8901019B1884201D9401AF0BD52
:101210000020F0BDC5ED000AF0BD54F82300F0BD7C
:10122000302903D054F82310126E0AE0106EF0BD7E
:10123000881AF0BD3029F0D03129F7D0116E54F85A
:1012400023209142F4D8F0BD3029E6D03129EDD0E9
:10125000322904D03329F6D1116E106BD6E754F839
:101260002310106ED2E7000000000000840D002063
:101270007010002000FF7F470000B4430000BE4311
:101280000000BE430A4908B54A7801280DD022F073
:10129000010048704FF47A70054A00900123521CF7
:1012A0004E21044802F09CFA08BD42F00100F0E72C
:1012B00010000020041D002008B5094B01295A78B0
:1012C0000CD082435A704FF47A70054A0090012383
:1012D000521C4E21034802F083FA08BD0243F1E795
:1012E00010000020041D0020084808B54178074A76
:1012F00041F0200141704FF47A7000900123521C9C
:101300004E21034802F06CFA08BD000010000020D6
:10131000041D002008B5094B01295A780CD002435E
:101320005A704FF47A70054A00900123521C4E21E6
:10133000034802F055FA08BD8243F1E7100000208F
:10134000041D002010B5FFF7CFFF4FF4967002F098
:1013500077F800210420FFF7DDFF01210220FFF7CD
:10136000D9FF962002F06CF800210820FFF7A4FFB7
:101370004FF4FA7002F064F801210820FFF79CFF97
:1013800001211020FFF798FF322002F059F80020C9
:10139000FFF778FF40F2DC5002F052F800211020F5
:1013A000FFF78AFFBDE81040642002F049B810B58D
:1013B000FFF79AFF4FF4967002F042F801210420E3
:1013C000FFF7A8FF00210220FFF7A4FF962002F0FC
:1013D00037F800210820FFF76FFF4FF4FA7002F092
:1013E0002FF801210820FFF767FF01211020FFF7E8
:1013F00063FF322002F024F80020FFF743FF40F2A1
:10140000DC5002F01DF800211020FFF755FFBDE869
:101410001040642002F014B870B5154C1E252079D8
:10142000432801D052281ED16179312902D03029B8
:101430000BD018E0432803D101211020FFF73CFF17
:10144000207952280ED1002109E0432803D1002140
:101450001020FFF731FF2079522803D10121082005
:10146000FFF72AFF002504F08DFE284670BD00001E
:10147000D813002010B50120FFF704FF4FF47A7055
:1014800001F0DEFF00210420FFF744FF00210220CD
:10149000FFF740FF01211020FFF70EFF4FF4967475
:1014A000204601F0CDFF01210820FFF705FF0021B4
:1014B0001020FFF701FF04F06DFE2046BDE810404C
:1014C00001F0BEBF0146014802F055BEB41B00202A
:1014D00010B5044802F061FE042801D0012010BDBF
:1014E000002010BDB41B002082B001208DF8000048
:1014F0009DF80000012802D0012002B07047024888
:1015000002B002F060BE0000B41B002038B5002419
:10151000009313460A460146034802F0E3FE00B179
:101520000124204638BD0000B41B002038B500243B
:10153000009313460A460146034802F0ADFF00B18E
:101540000124204638BD0000B41B0020F8B53C4DF6
:101550003C4C0027697920784FF47A76312902D003
:10156000302934D069E0297931290DD120F00100EA
:1015700020700123334A40213348009602F030F9AD
:1015800032A1384808F0A8FF287932280ED12078F7
:10159000012320F0200020702A4A40212A4800968A
:1015A00002F01EF930A12F4808F096FF2879332861
:1015B00043D16078234A20F0040060700123521C5C
:1015C00042212148009602F00BF92DA132E0297941
:1015D00031290DD140F0010020700123194A40212A
:1015E0001948009602F0FCF82BA11E4808F074FF81
:1015F000287932280ED12078012340F02000207075
:10160000104A40211048009602F0EAF828A1154837
:1016100008F062FF287933280FD16078094A40F03A
:10162000040060700123521C42210748009602F01A
:10163000D7F825A10B4808F04FFF3846F8BD000049
:10164000D813002024000020041D0020456E616294
:101650006C65205057522052656C61792043484791
:1016600031000000A6130020456E61626C652050B9
:1016700057522052656C6179204348473200000080
:10168000456E61626C65205057522052656C6179DD
:10169000204348473300000044697361626C652051
:1016A0005057522052656C61792043484731000001
:1016B00044697361626C65205057522052656C61B9
:1016C000792043484732000044697361626C6520A9
:1016D0005057522052656C617920434847330000CF
:1016E000FEE7000008B5094B0129DA780CD08243E7
:1016F000DA704FF47A70054A00900123D21C42211F
:10170000034802F06DF808BD0243F1E71000002025
:10171000041D002008B50BA00068009009F024FF0C
:101720000221684607F0F4F9022008F073FC022851
:1017300005D3054800784E2801D0002008BD0120BF
:1017400008BD0000160D0000741900202DE9FF4FA0
:101750008DB00C4605469A46302101A8DDF868B0E8
:10176000FEF77DFD50490023DFF840918A68009222
:10177000D1F804E04E491E4618464F7A01A90022CE
:1017800035B109EBC60C0CEB800CDCF890C01DE009
:10179000DDF83CC0BCF1310F06D0BCF1320F0AD0ED
:1017A000BCF1330F16D10BE009EBC60C0CEB800C2F
:1017B000DCF860C00AE009EBC60C5CF820C005E06C
:1017C00009EBC60C0CEB800CDCF830C001EB031805
:1017D00048F822C0312F02D0322F12D107E0312C2D
:1017E00002D0002A07DC0CE0002A10DC09E0312CD2
:1017F0000BD0012A05DD01EB0318DDF800C048F825
:1018000022C0401C022807D007E0012AF9DD01EBC5
:10181000031848F822E0F4E70020012A01D0032A47
:1018200000D1761C521C042AAADB5B1C032BA6DB0E
:10183000312C049801AC009094E80E004FF00400A5
:101840001AD009F01DFBCAF800000898009005ACFA
:10185000042094E80E0009F013FBCBF800000C986C
:10186000009009AC042094E80E0009F009FB1B99D4
:10187000086011B0BDE8F08F09F0F1FACAF8000075
:101880000898009005AC042094E80E0009F0E7FAEF
:10189000CBF800000C98009009AC042094E80E00EE
:1018A00009F0DDFAE3E700002400002070100020BA
:1018B000840D002070B5054600264E240DF080FBF7
:1018C0007D4942F2D7324DF28660312D04D0322D5F
:1018D00013D0342D34D0E8E00B88934205D20B8925
:1018E000934202D20B8A934277D30A888242F2D97A
:1018F0000A898242EFD9098AC1E00B8893420ED24D
:101900004B8893420BD20B89934208D24B89934266
:1019100005D20B8A934202D24B8A93425DD30A8846
:1019200082426FD94A8882426CD90A89824269D937
:101930004A89824266D90A8A824263D9498A9EE0EC
:101940000B88934250D24B88934201D2012300E08E
:1019500000238D88954201D2012500E000252B420D
:1019600042D0CB88934201D2012300E000230D89AD
:10197000954201D2012500E000252B4234D04B894D
:10198000934201D2012300E000238D89954201D2C8
:10199000012500E000252B4226D0CB89934201D2BD
:1019A000012300E000230D8A954201D2012500E0C9
:1019B00000252B4218D04B8A934201D2012300E02C
:1019C00000238D8A954202D2012501E005E0002521
:1019D0002B4209D0CB8A934206D24F24012180208A
:1019E00003F034FA002156E00A8882425DD94A8821
:1019F000824201D9012200E000228B88834202D971
:101A0000012301E051E000231A424ED0CA888242ED
:101A100001D9012200E000220B89834201D9012370
:101A200000E000231A4240D04A89824201D90122B3
:101A300000E000228B89834201D9012300E00023CA
:101A40001A4232D0CA89824201D9012200E0002222
:101A50000B8A834201D9012300E000231A4224D0DB
:101A60004A8A824201D9012200E000228B8A834205
:101A700001D9012300E000231A4216D0C98A81420D
:101A800013D943240121802003F06AF9002180202A
:101A900003F0DCF902E0802003F062F9224607A19E
:101AA000074808F019FD304670BD0121802003F081
:101AB000CDF90121EFE70000681400204225630002
:101AC000A61300200020044930220A54401CC0B252
:101AD0003228FAD370470000D813002000200449B0
:101AE00020220A54401C3328FBDB0020087070477A
:101AF0000A14002008B509F037FD0D2000900D4BA9
:101B00000A220DA10E4808F0E7FCC1B20C4806F00D
:101B1000FFFFC82001F094FC022008F07BFA0228A5
:101B200003D3074800783E2801D0012008BD0020DB
:101B300008BD0000F40E00202563202573256300F6
:101B40007419002010B5FFF7D5FF024900208877EF
:101B500010BD0000F00E002038B5124A4FF47A7420
:101B60000128137808D0022814D1012916D00029A1
:101B700010D123F0200005E001290CD0002909D163
:101B800023F0100010700123064A482106480094F3
:101B900001F026FE38BD43F01000F3E743F02000CB
:101BA000F0E7000010000020041D00202DE9F04F98
:101BB00099B000200090019002900390049005904D
:101BC00006900790089009900A900B900C900D9049
:101BD0007E4E0E900F9010901190129013901490D2
:101BE0001590169017904FF40044B084F08430851F
:101BF0007085B085F085764F00220421384601F0CB
:101C000060FD00BF00BF00BF00BF00BF00BF00BF3E
:101C100000BF00BF00BF002221466E4801F051FD09
:101C2000002500BF00BF00BF00BF00BF00BF00BF56
:101C300000BF00BF00BF01220421384601F041FD72
:101C400000BF00BF00BF00BF00BF00BF00BF00BF9C
:101C500000BF00BF00220421384601F032FD6D1C98
:101C6000062DDED300256F460DF1200B0DF1400A45
:101C700000BF00BF00BF00BF00BF00BF00BF00BF6C
:101C800000BF00BF01220421514801F01AFD00BF2E
:101C900000BF00BF00BF00BF00BF00BF00BF00BF4C
:101CA00000BF40214A4801F003FDDFF82C81785540
:101CB0004021404601F0FCFC04A9485580214046E3
:101CC00001F0F6FC0BF805004FF48071434801F079
:101CD000EFFC0DF13008DFF8089108F805004FF42B
:101CE0008041484601F0E4FC0AF805004FF4004149
:101CF000484601F0DDFC0DF15009002209F805000D
:101D00000421334801F0DDFC6D1C102DB0D300BF61
:101D100000BF00BF00BF00BF00BF00BF00BF00BFCB
:101D200000BF0122D1032B4801F0CBFC002004A905
:101D30005A4643465546CC4617F80080B8F1010F85
:101D400005D1B6F8248048EA0408A6F8248011F8E2
:101D50000080B8F1010F05D1B6F8268048EA0408E2
:101D6000A6F8268012F80080B8F1010F05D1B6F868
:101D7000288048EA0408A6F8288013F80080B8F103
:101D8000010F05D1B6F82A8048EA0408A6F82A808F
:101D900015F80080B8F1010F05D1B6F82C8048EA9B
:101DA0000408A6F82C801CF80080B8F1010F05D1BA
:101DB000B6F82E8048EA0408A6F82E806408401C75
:101DC0001028B9D319B0BDE8F08F000068140020C6
:101DD00000100240001802400014024000000240BF
:101DE00000040240012808D00B4B022809D0032828
:101DF0000BD00AA1114808F06FBB00220221104845
:101E000007E000224FF4806102E000224FF400510D
:101E1000184601F056BC0000001802404572726F6F
:101E2000723A206F70657261746F72206E6F7420E9
:101E3000636F72726563742100000000A6130020B6
:101E400000000240012808D00A4B022809D00328CC
:101E50000AD009A1104808F03FBB012202210F4817
:101E600005E00122910201E001225103184601F030
:101E700028BC0000001802404572726F723A206F51
:101E800070657261746F72206E6F7420636F72720E
:101E90006563742100000000A613002000000240CA
:101EA0002DE9F05F40F00100DFF8E4800C4640F4DB
:101EB000C0164FF400074FF00A0B012204214046E0
:101EC00001F0FFFB584609F041FD4FF001094FF0CA
:101ED000000A012C03D05046022C0CD000E04846EA
:101EE0000021084304D000220821404601F0E9FB0C
:101EF000032C02D007E00121F3E700224FF48051C8
:101F0000244801F0DEFB584609F020FD00253E4242
:101F100001D0012200E000220121404601F0D1FB66
:101F2000584609F013FD00220421404601F0C9FB88
:101F3000584609F00BFD760001220421404601F0CD
:101F4000C0FB584609F002FD6D1CEDB2182DDED322
:101F5000584609F0FBFC012C03D05046022C12D04D
:101F600000E048460021084304D0012208214046F1
:101F700001F0A7FB032C08D1BDE8F05F012211039B
:101F8000044801F09EBB0121EDE7BDE8F09F000091
:101F900000000240001802402DE9F04F44F6206690
:101FA000740091B04FF0000820460AF0B7FF0F9080
:101FB00020460AF0B3FF0E9020460AF0AFFF0D90C6
:101FC00020460AF0ABFF0C9020460AF0A7FF0B90CA
:101FD00020460AF0A3FF85490A904FF0C04B0968DC
:101FE0006FF001005C460861804802F03DFC8048CB
:101FF0004FF0010980F80290002582462F469AF89A
:10200000021050460029FAD08770FFF7CFFD7948BB
:10201000818CADF82410C18CADF82010018DADF885
:102020001810418DADF81010818DADF81C10C08DC9
:10203000ADF81400012309AA21466F4802F05CFBA9
:10204000A41C012308AA21466B4802F055FBA41CDE
:10205000012306AA2146684802F04EFBA41C012376
:1020600004AA2146644802F047FBA41C012307AAE6
:102070002146614802F040FBA41C012305AA214629
:102080005D4802F039FB6D1CADB2A41CB542B6D35D
:102090005C46DFF868A1DFF868B10025012309AAD2
:1020A0002146554802F0F2FAA41C012308AA214651
:1020B000514802F0EBFAA41C012306AA21464E481F
:1020C00002F0E4FAA41C012304AA21464A4802F0C3
:1020D000DDFAA41C012307AA2146474802F0D6FADC
:1020E000A41C012305AA2146434802F0CFFA9AF81E
:1020F0000300A41C5746432811D1BDF81800BDF8B1
:102100001430BDF81C20BDF810108DE80F00BDF88C
:102110002030BDF824203BA13F4808F0DDF9F878D5
:10212000312807D1BDF82030BDF8242038A13A4825
:1021300008F0D2F9F878322807D1BDF81030BDF890
:10214000182033A1344808F0C7F9F878332807D1AC
:10215000BDF81430BDF81C202DA12F4808F0BCF9A3
:102160009BF8010006F06AFCB5F5FA6F0AD0002072
:10217000B5F57A6F08D0A5F5B851703906D140F0A1
:10218000010006E0484604E040F00100B5F5FA5FC2
:1021900003D00021084305D108E00121FAE70A2015
:1021A00001F04EF90AF08EFC4128F8D16D1CADB259
:1021B000B542FFF473AF19A1174808F08DF94446F2
:1021C0000A980AF023FB0B980AF020FB0C980AF0FF
:1021D0001DFB0D980AF01AFB0E980AF017FB0F98DA
:1021E0000AF014FB11B02046BDE8F08F381C002027
:1021F0002400002068140020B41C0020D813002004
:102200001700002025752C25752C25752C25752C7F
:1022100025752C25753B0000A61300204F4B0000B0
:102220002DE9F04F44F620677C0095B04FF0000890
:1022300020460AF073FE129020460AF06FFE1190BD
:1022400020460AF06BFE109020460AF067FE0F90C1
:1022500020460AF063FE0E9020460AF05FFE4FF023
:10226000C04A0D905446092105200DF085FF054612
:10227000B1480079313805280DD2DFE800F00305B8
:1022800007090B00012606E0022604E0032602E00F
:10229000042600E005260120FFF7D4FD0220FFF709
:1022A000D1FD0320FFF7CEFD01222946104605F09F
:1022B00021F801222946032005F01CF80A2001F02C
:1022C000BFF8012E01D0032E03D101210846FFF7EC
:1022D00043FC022E03D0042E01D0052E03D1012190
:1022E0000220FFF739FC95496FF001000968086189
:1022F000924802F0B9FA9248012181700025814686
:102300004FF4486B99F8021048460029FAD0002192
:102310008170FFF74BFC8B48818CADF82810C18C85
:10232000ADF83010018DADF81C10418DADF81810CE
:10233000818DADF81410C08DADF8100001230AAAEC
:102340002146814802F0D8F9A41C01230CAA214699
:102350007D4802F0D1F9A41C012307AA21467A483E
:1023600002F0CAF9A41C012306AA2146764802F00D
:10237000C3F9A41C012305AA2146734802F0BCF945
:10238000A41C012304AA21466F4802F0B5F9A41C3D
:10239000012E08D0022E09D0032E0BD0042E1AD005
:1023A000052E2ED04CE05D4528D049E0B5F5C86F2C
:1023B00024D045E05D4503D100210120FFF7CCFB8F
:1023C000A5F55060483803D101210220FFF7C4FB76
:1023D00041F2883010E0B5F5C86F03D1002102202A
:1023E000FFF7BAFBA5F5E850B03803D10121084644
:1023F000FFF7B2FB42F63020854221D100F09CFC71
:102400001EE0B5F5C86F03D100210220FFF7A4FB41
:10241000A5F5E850B03803D101210846FFF79CFB31
:10242000A5F52850303803D100210120FFF794FB97
:10243000A5F52850F83803D101210220FFF78CFBC5
:102440004FF40061414801F038F96D1CADB2BD4256
:10245000FFF458AF00F070FC3D4E544600254FF499
:10246000FA6901230AAA2146374802F00FF9A41C91
:1024700001230CAA2146344802F008F9A41C0123C8
:1024800007AA2146304802F001F9A41C012306AA3C
:1024900021462D4802F0FAF8A41C012305AA214682
:1024A000294802F0F3F8A41C012304AA2146264877
:1024B00002F0ECF8BDF81C00BDF81030BDF8142097
:1024C000BDF818108DE80F00BDF83030BDF8282099
:1024D00020A12548A41C07F0FFFF707806F0AEFA93
:1024E000B5FBF9F109FB115018B106E00A2000F024
:1024F000A7FF0AF0E7FA4128F8D16D1CADB2BD4242
:10250000AFD31AA1184807F0E7FF44460D980AF028
:102510007DF90E980AF07AF90F980AF077F9109879
:102520000AF074F911980AF071F912980AF06EF92C
:1025300015B02046BDE8F08FD8130020381C0020CD
:102540002400002068140020B41C00200014024065
:102550001700002025752C25752C25752C25752C2C
:1025600025752C25753B0000A61300204F4B00005D
:1025700010B5002400F02AF803F004FE204610BD38
:102580007047000008B508F0EFFF0D2000900B4BDE
:1025900007220BA10C4807F09FFFC1B20A4806F0C2
:1025A000B7FA022007F036FD022803D30648007868
:1025B0003E2801D0012008BD002008BDF40E0020F7
:1025C00025632025732563007419002015484FF4F6
:1025D0008021816100BF00BF00BF00BF00BF00BFFE
:1025E00000BF00BF00BF00BF0F494FF080520A601C
:1025F00000BF00BF00BF00BF00BF00BF00BF00BFE3
:1026000000BF00BF4FF480520A600421816100BF07
:1026100000BF00BF00BF00BF00BF00BF00BF00BFC2
:1026200000BF70470010024018180240F0B52DEDB1
:10263000068B87B00E469FED9D8ABFEE00AA9FEDE8
:102640009C0A0546412804D0422814D0432837D19B
:1026500023E00020312E06D0322E06D0332E06D0B5
:10266000342E2DD105E0002226E0002227E00122B1
:1026700022E0012223E00120312E06D0322E06D0A6
:10268000332E06D0342E1BD105E0022214E00222A4
:1026900015E0032210E0032211E00220312E06D0C3
:1026A000322E06D0332E06D0342E09D106E0042275
:1026B00002E0042203E00522002101E005220121BD
:1026C0007C4B53F8207000EE907AB8EEE01ADFED04
:1026D0007A0A03EB8000412D61EE209A90ED031AF7
:1026E000B8EEC11A21EE209A90ED091AB8EEC11A7F
:1026F00061EE208A03D0422D01D0432D09D103EB96
:10270000C20000EB810090ED0F1AB8EEC11A21EE65
:10271000208A6A4F202097F85810312946D0322954
:1027200054D0442161F30704652161F30F2467212C
:1027300061F31744F5EEC09A60F31F64F1EE10FAEE
:1027400001D269EE8A9AB5EEC09AF1EE10FA01D282
:1027500029EE0A9AF5EEC08AF1EE10FA01D268EE7F
:102760008A8AB5EEC08AF1EE10FA01D228EE0A8A02
:10277000412D46D0422D44D0432D42D0322E6BD035
:10278000332E7CD0342E53D118EE900AFDF7C2FEC2
:10279000230EC4F30742C4F30725CDE90423E4B2B2
:1027A0008DE83300464A47A14B4867E06D2161F34D
:1027B000070461F30F2469EE809A29EE009A68EE0F
:1027C000808A28EE008A60F31744B3E79FED430B3D
:1027D00051EC100BFDF7CAFE00EE100A692060F301
:1027E00007046E2060F30F24632060F3174469EE42
:1027F000809A29EE009A68EE808A28EE008A682086
:1028000098E7787A312818EE100A15D0FDF782FE85
:10281000220EC4F30743CDE90432C4F30727E4B220
:102820008DE8930033462A462EA12B4807F054FE2C
:1028300007B0BDEC068BF0BDFDF76CFE220EC4F3B5
:102840000743CDE90432C4F30726E4B28DE8530010
:102850002A462AA1204811E019EE900AFDF75AFEF7
:10286000220EC4F30743CDE90432C4F30725E4B2D2
:102870008DE83300124A13A1921F174800E002E0CE
:1028800007F02AFED4E719EE100AFDF743FE230EE7
:10289000C4F30742CDE90423C4F30725E4B28DE86D
:1028A0003300074A07A1D21E0B48E7E700000000EB
:1028B00069B7B23E8C120020BC74133D840D002019
:1028C000062300202532733A25342E3266202563F4
:1028D00025632563256300000A1400207CE61D4C57
:1028E000F2248C3F25632563203D25342E3266205B
:1028F0002563256325632563000000002563203DD3
:1029000025342E3266202563256325632563000068
:102910002DE9F05F14463038C2B23039C8B202EB4C
:10292000820100EB410001250A9F1E464FF000087E
:102930004FF005094FF0040A4FF0030B372826D259
:10294000DFE800F01C272F363D454D555D656D775E
:1029500080868D949BA1A7AEB2B7BCC1C6CBD0F088
:10296000F5FAFFEBEAE9E8E7E6E5E4E3E2E1E0DFD8
:10297000DEDDDCDBDA25D9D8D7D6D500B2A1B44864
:1029800007F0AAFD257086F8008087F80080BDE872
:10299000F09FB0A1AE4807F09FFD257086F800803B
:1029A0004EE0AEA1AA4807F097FD257035703DE0D6
:1029B000ACA1A74807F090FD2570357040E0ABA1B1
:1029C000A34807F089FD2570022030702EE0A9A1F0
:1029D0009F4807F081FD25700220307030E0A7A1EC
:1029E0009B4807F079FD257086F800B01EE0A5A190
:1029F000974807F071FD257086F800B020E0A3A18C
:102A0000934807F069FD257086F800A00EE0A1A1AB
:102A10008F4807F061FD257086F800A010E09FA1A7
:102A20008B4807F059FD257086F8009087F80080E4
:102A3000ADE79CA1864807F04FFD257086F8009011
:102A40003D70A4E799A1824807F046FD0220A7E067
:102A500098A17F4807F040FD84F800B097E797A160
:102A60007B4807F039FD84F800A090E795A17848ED
:102A700007F032FD84F8009089E795A1744807F0CB
:102A80002BFD06208CE095A1714807F025FD07205D
:102A900086E095A16E4807F01FFD84F8008076E778
:102AA000934A94A16A48CAE0914A92A115326848B3
:102AB000C5E08F4A8FA12A326548C0E08C4A8DA1BB
:102AC0003F326348BBE08A4A8AA154326048B6E08C
:102AD000874A88A169325E48B1E0854A85A17E3285
:102AE0005B48ACE0824A83A193325948A7E0A3E057
:102AF0009DE097E091E08BE085E07FE079E073E096
:102B00006DE067E061E05BE056E050E04AE042E003
:102B10003BE034E02DE026E01FE018E011E00BE0A0
:102B200005E0FFE7724A73A1A832494887E0704A7E
:102B300070A1BD32464882E06D4A6EA1D23244484F
:102B40007DE06DA1424807F0C7FC082028E06AA19B
:102B50003F4807F0C1FC092022E069A13C4807F08A
:102B6000BBFC0A201CE068A1394807F0B5FC0B202B
:102B700016E067A1364807F0AFFC0C2010E066A114
:102B8000334807F0A9FC0D200AE065A1304807F0A2
:102B9000A3FC0E2004E064A12D4807F09DFC0F204B
:102BA0002070F4E6524A53A1E732294847E0504AE0
:102BB00050A1FC32264842E05D4A4EA124483EE046
:102BC0005B4A4CA11532224839E0594A49A12A32C0
:102BD0001F4834E0564A47A13F321D482FE0544A6F
:102BE00044A154321A482AE0514A42A16932184895
:102BF00025E04F4A3FA17E32154820E04C4A3DA1D6
:102C0000933213481BE04A4A3AA1A832104816E012
:102C1000474A38A1BD320E4811E0454A35A1D232AB
:102C20000B480CE0424A33A1E732094807E0404A2A
:102C300030A1FC32064802E03E4A05482DA1BDE81D
:102C4000F05F07F049BC00004131203D200000004A
:102C50000A1400204132203D200000004133203D75
:102C6000200000004134203D200000004231203D82
:102C7000200000004232203D200000004233203D71
:102C8000200000004234203D200000004331203D60
:102C9000200000004332203D200000004333203D4F
:102CA000200000004334203D2000000041203D2052
:102CB0000000000042203D200000000043203D2095
:102CC00000000000412053796E203D2000000000EC
:102CD000422053796E203D200000000043205379AC
:102CE0006E203D2000000000202020200000000079
:102CF000B01F00202573000020202020202000008D
:102D00003161203D200000003162203D20000000A4
:102D10003261203D200000003262203D2000000092
:102D20003361203D200000003362203D2000000080
:102D3000C1200020D221002010B501210020FFF782
:102D4000AFF802210020FFF7ABF803210020FFF7C6
:102D5000A7F80120FFF746F80220FFF743F8032009
:102D6000FFF740F800210220FEF7F6FE0021BDE843
:102D700010400120FEF7F0BE30B5264A1E2185B076
:102D8000D378442B42D11379A3F13004092C03D911
:102D9000412B01D0422B39D100216B4655186D795A
:102DA0005D54491C1429F9DB1946132C29D2DFE89C
:102DB00004F00A0C0E101215181B1D2028282828B4
:102DC00028282823260014481BE0144819E013483B
:102DD0000DE012480EE011483C3012E00F48503030
:102DE0000FE00E4864300CE00D480AE00C48143047
:102DF00007E00B48283004E007481B3001E0064894
:102E00000D30FDF73EFA03F0BDF9002105B008468C
:102E100030BD0000D8130020F40E00203C0E00202E
:102E2000B40E0020134A10B591783139062914D216
:102E3000DFE801F00305080B0E110F480DE00E4806
:102E4000C01C0AE00C48801D07E00B48093004E074
:102E500009480C3001E008480F3000215318491C84
:102E6000DB7800F8013B0329F8D303F08BF900204D
:102E700010BD0000D8130020B00D002010B51E2496
:102E80000E21032008F084FA08BB042103200DF072
:102E900073F9104C0621207005200DF06DF960705B
:102EA000082107200DF068F9A0700A2109200DF013
:102EB00063F9E0700C210B200DF05EF920710E21FA
:102EC0000D200DF059F9607103F05CF900242046E3
:102ED00010BD00001A00002070470022AFF30080F0
:102EE00030B50E4B054601205C7A002C14D1587A7F
:102EF0001C54587A03EB800045605D7A03F10800AA
:102F00002A54587A421C5A72303008703A2048705D
:102F10002F208870CC70002030BD000000240020DD
:102F200070B5B3F5804F05D06FF0704140F82210B6
:102F3000002070BD50F82240084B8E891C40D1E91A
:102F4000003543EA05138D6889692D0245EA064577
:102F50002B430B43234340F82230E9E70000F0CF36
:102F6000F0B50C6850F82430114A1340D1E901251E
:102F7000D1E903672A433E4332434E6932438E69A7
:102F80003243CE6932430E6A32434E6A32438E6A0E
:102F90003243CE6A3243CE6B096B32430A431A4343
:102FA000082D01D142F0400240F824200020F0BD5D
:102FB0008000F0FF30B500EB820250688D8900F090
:102FC0004043D1E9000440EA04108C68240244EA3A
:102FD000054420430C8A074D05EB045420430C7D27
:102FE0006D0105EB04648969204308431843506070
:102FF000002030BD0000F0FF08B508F0B5FA0D2044
:1030000000900D4B01220DA10E4807F065FAC1B2E8
:103010000C4805F07DFD032006F0FCFF032808D3D3
:1030200008484178432902D18078462801D0012000
:1030300008BD002008BD0000F40E002025632025F7
:10304000732563007419002070B506460124FEF74D
:1030500039FD412E1BD009F035FD1B28F9D1412E39
:1030600018D009F02FFD6D28F3D1114D2870412E95
:1030700013D009F027FD2855641CE4B205EB0400C9
:10308000322C10F8010C0BD20028F0D10EE009F020
:10309000C9FFE2E709F0C6FFE5E709F0C3FFEAE789
:1030A00020B11E20322C00D31E2070BD0020F9E775
:1030B000D81300202DE9F0475D4E5E4DF71DDFF877
:1030C00078910024317805EB041808EB810004F1B5
:1030D000310250F8C03C924658A15C4807F0FCF918
:1030E00099F8010005F0AAFC386838B105EB8400B6
:1030F000D0F8D830281990F8F00009E0307808EBC3
:103100008001284451F8603C902101EB8401405C2F
:10311000524680464EA14D4807F0DEF999F801006D
:1031200005F08CFC434652464EA1484807F0D4F9BE
:1031300099F8010005F082FC641CE4B2761C3F1D86
:10314000062CBFD300244E4601E0032C1CD205EB15
:10315000840704F1310257F8F83F904645A13B48F7
:1031600007F0BAF9707805F069FC424647A1374884
:10317000BB6907F0B1F9707805F060FC2819424688
:1031800090F8283147A11BE005EB840704F13102D8
:1031900057F8F83F904648A12C4807F09DF9707801
:1031A00005F04CFC42464AA12848BB6907F094F957
:1031B000707805F043FC2819424690F828314BA15D
:1031C000224807F089F9707805F038FC641CE4B2F5
:1031D000062CBAD35FF0000405EB840704F131023A
:1031E000904648A11948D7F8303107F075F9707842
:1031F00005F024FC424649A11448D7F83C3107F0B9
:103200006BF9707805F01AFC2819424690F848319D
:1032100048A10E4807F060F9707805F00FFC641CB7
:10322000E4B2032CD8D302F0ADFF0020BDE8F08754
:10323000910D0020240F0020170000204143482555
:10324000635F4741494E3D2530357500A613002088
:1032500041434825635F4F46465345543D2530352D
:103260007500000041434825635F5349474E3D25A3
:1032700063000000435552525F4F50454E25635F37
:103280004741494E3D2530357500000043555252A7
:103290005F4F50454E25635F4F46465345543D258D
:1032A00030357500435552525F4F50454E25635F90
:1032B0005349474E3D256300435552525F434C4F9F
:1032C000534525635F4741494E3D25303575000024
:1032D000435552525F434C4F534525635F4F46461B
:1032E0005345543D2530357500000000435552527A
:1032F0005F434C4F534525635F5349474E3D25631C
:1033000000000000414E414C4F475F545225635F1F
:103310004741494E3D25303575000000414E414C36
:103320004F475F545225635F4F46465345543D25F2
:1033300030357500414E414C4F475F545225635F15
:103340005349474E3D2563002DE9F0411E2644F6C2
:10335000206742F20F780C21042008F019F8F8B920
:10336000082104200CF008FF05460C2109200CF070
:1033700003FF0446A5B1BD4212D88CB144450FD815
:1033800000200CF0ABFF002605E030460AF0B8FE46
:103390000CF060FB2644AE42F7D30CF041FB002654
:1033A0003046BDE8F08100002DE9F0411D491E20A6
:1033B0000979A1F13003042B20D800261A4D1B4CAB
:1033C000302908D0312908D0322908D0332908D033
:1033D000342915D006E0002204E0142202E028225D
:1033E00000E03C2244202070002011182318695C62
:1033F000401C59701428F8D366750020BDE8F08190
:103400000027E81990F850000AF040FD7F1C302F8B
:10341000F7D300200AF03AFD0549267031200870E4
:10342000EBE70000D813002010130020A6130020A3
:103430002000002010B50CF075FB002010BD00002E
:1034400070B5044600F042F90546601C02D00448FD
:103450000078044400F03AF9401BA042FAD370BD52
:10346000600D0020F0B5204887B00168002939D1EF
:10347000012101601D480024016841F00101016043
:103480000068022500F0010005904FF69B70CDE921
:10349000000502AA03260C2782E8D00069461448DA
:1034A00000F02EF84FF23F00CDE9000502AA694670
:1034B00082E8D0000F4800F023F83F20CDE9000556
:1034C00002AA694682E8D0000B4800F019F84FF6CE
:1034D000B370CDE9000502AA694682E8D00007482A
:1034E00000F00EF807B0F0BD0800002038380240A8
:1034F000001002400014024000180240000C02407C
:103500002DE9F84FDFF87CB100224FF001084FF0B1
:10351000030A4FF00F090BF1040E00BF0B6808FA05
:1035200002F42340A3426ED14D68022D01D0122D2A
:103530000ED1D50800EB850CDCF820505607F70EAD
:1035400009FA07F6B5430E69BE402E43CCF8206059
:10355000066855000F790AFA05FC07F0030726EA0A
:103560000C06AF40374307604E68012E05D0022E8F
:1035700003D0112E01D0122E0ED18668CF6826EA14
:103580000C06AF40374387604668A6430C79C4F306
:103590000014944034434460C6688C6826EA0C06E4
:1035A000AC403443C4604C68E40065D5364C2568B3
:1035B00045F480452560246822F0030504F4804426
:1035C0000094324C2E19D6F8084895072F0F09FAA7
:1035D00007F5AC432E4DA84201D1002524E02D4D26
:1035E000A84201D101251FE02B4DA84201D102259F
:1035F0001AE02A4DA84201D1032515E0284DA84222
:1036000002D1042510E037E0264DA84201D105255E
:103610000AE0254DA84201D1062505E0234DA84228
:1036200001D1072500E00825BD402543C6F808580C
:10363000DBF800405D464E689C43F60300D51C4312
:103640002C60DEF8004075464E689C43B60300D5FA
:103650001C432C600B4D08352C684E689C43F602C9
:1036600000D51C432C60074D0C352C684E689C43DC
:10367000B60200D51C432C60521C102AFFF44EAF3A
:10368000BDE8F88F003C0140443802400030014062
:10369000000002400004024000080240000C02400A
:1036A000001002400014024000180240001C0240BA
:1036B0000069084000D00120704742694A404261D9
:1036C00070470AB1816170470904FBE701488068CF
:1036D00070470000600D002070B5040004D094F81D
:1036E0003D00002510B106E0012070BD84F83C507B
:1036F000204600F011F9242084F83D00206801687C
:1037000021F00101016000F06BFA33492268B0FB3F
:10371000F1F15160314A6368934206D94FF49673D0
:1037200059434FF47A73B1FBF3F12368491C1962D2
:10373000616891420BD84900B0FBF1F2C2F30B0271
:10374000042A01D2042019E0B0FBF1F016E0A368CE
:103750009BB301EBC10202EB0112B0FBF2F242F4A7
:103760008042120530D04BB301EBC10202EB0111D4
:10377000B0FBF1F040F4804040F400402168C861A3
:10378000D4E90701084321680860D4E9031008431D
:1037900021688860D4E9050108432168C860206871
:1037A000016841F0010101602564202084F83D009A
:1037B000256384F83E50002070BD00E006E001EB78
:1037C0004102B0FBF2F2CCE70120D7E701EB410167
:1037D000B0FBF1F0D0E7000040420F00A0860100EE
:1037E0002DE9F84F1F4690468A460446DDF828909A
:1037F000FFF76CFF064694F83D0020287ED1192380
:10380000012243492046009601F05FFB00287DD14C
:1038100094F83C00012879D0012084F83C0020680D
:103820000168C90703D1016841F001010160206806
:10383000016821F400610160212084F83D0010201E
:1038400084F83E0000252564C4F82480678531484B
:10385000E062608D208533464A465146204601F09D
:10386000ABFA28B1206C84F83C5004284CD00DE011
:10387000206841698069009030E032464946204620
:1038800001F098FB28B1206C042838D00320BDE853
:10389000F88F606A411C6162216800780861608D60
:1038A000401E6085208D401E80B2208521684A69B7
:1038B000D24352070BD450B1606A421C6262007856
:1038C0000861608D401E6085208D401E2085324637
:1038D0004946204601F0D2FA0028D4D1208D002894
:1038E000CBD154F83D0B016841F4007101602020F8
:1038F00004F81E09E57765770020C8E706E0206830
:10390000016841F4007101600120C0E70220BEE7B8
:10391000020010000000FFFF10B586B0044614211D
:103920006846FCF79CFC13492068884220D1124865
:10393000016841F0020101600068694600F0020080
:103940000590C020009012200190012002900320D9
:103950000390042004900948FFF7D2FD0648103078
:10396000016841F400110160006800F40010059046
:1039700006B010BD00540040303802400004024040
:10398000024881680278114481607047600D002010
:103990000B4810B5016841F400710160016841F401
:1039A00080610160016841F480710160032000F0D2
:1039B0006DF8002000F006F800F024F8002010BD9B
:1039C000003C024070B50D4D04464FF47A712878E2
:1039D000B1FBF0F00A490968B1FBF0F000F0CEFE4F
:1039E00048B9102C07D200222146501E00F02EF8B4
:1039F00000206C6070BD012070BD0000600D0020D3
:103A00006C0D00200A4808B5016841F4804101604E
:103A1000006800F4804000900548001F016841F0F4
:103A200080510160006800F08050009008BD0000E7
:103A30004438024000F01F020121914040098000FB
:103A400000F1E020C0F8001170470000F0B40E4B08
:103A50001B680C46C3F30223C3F10705042D00D9EC
:103A60000425191D072901D2002300E0DB1E0126D1
:103A700006FA05F1491E214099409E40761E1640E7
:103A80003143F0BC02F06DBB0CED00E0064900F0E4
:103A9000070208684FF6FF03184040EA0220034A75
:103AA00010430860704700000CED00E00000FA05CC
:103AB0002DE9F0470E46050065D0DFF81481D8F8EF
:103AC0000000F7B200F00F00B04207D288F8007093
:103AD000D8F8000000F00F00B04254D128683D4CE7
:103AE000810712D5400703D5206840F4E0502060DC
:103AF0002878000703D5206840F4604020602068E3
:103B0000A96820F0F000084320602878C0072DD075
:103B1000304968680839012812D0022813D00328D8
:103B200011D00968890700292DDA216821F00301E5
:103B300001432160FFF7CAFD814641F2883A0EE059
:103B400009688903EFE709688901ECE7FFF7BEFD23
:103B5000A0EB0901514502D90320BDE8F087206898
:103B6000696800F00C00B0EB810FEFD1D8F80010BD
:103B7000404601F00F01B14207D90770006800F01C
:103B80000F00B04201D00120E7E72878400705D5B3
:103B90002068E96820F4E050084320602878000796
:103BA00006D52068296920F4604040EAC100206001
:103BB00000F036F82168084AC1F30311515CC8408F
:103BC000064908600020FFF7FDFE0020C5E7000061
:103BD000003C024008380240580501086C0D0020E6
:103BE0000448054900680968044AC1F38221515C10
:103BF000C84070476C0D0020083802406805010875
:103C00000448054900680968044AC1F34231515C1F
:103C1000C84070476C0D0020083802406805010854
:103C2000154810B5006810F00C02144813D041106C
:103C3000042A0FD0082A0ED10F4C241F22682368B3
:103C400002F03F025B0207D52068C0F38810A0FB9A
:103C5000010106E0084610BD2168C1F38811A1FBEF
:103C600000010023FCF7ACFA2168C1F30141491CB3
:103C70004900B0FBF1F010BD083802400024F40008
:103C80002DE9F84F050076D02878DFF8F8B2BE4C61
:103C9000C00749D0DBF800105846C1F38101012963
:103CA00008D00068C0F3810002280AD1201D0068F6
:103CB000400206D52068800336D568680028E2D027
:103CC00032E06868B0F5803F10D0B0F5A02F2068D2
:103CD00010D020F480302060206820F48020206004
:103CE0006868A0B1FFF7F2FC06460CE0206840F4DB
:103CF0008030F4E740F480202060F7E7FFF7E6FC2F
:103D0000801B642873D820688003F7D50CE0FFF788
:103D1000DDFC064605E000BFFFF7D8FC801B6428E9
:103D2000F0D820688003F7D42878DFF86082800715
:103D30004FF000093ED5DBF80010584611F00C0F8B
:103D400009D00068C0F3810002280BD18D48001F04
:103D50000068400206D42068800715D5E86801286D
:103D600009D111E0E868B8B10120C8F80000FFF7F8
:103D7000ADFC064605E002E1FFF7A8FC801B022827
:103D8000C0D820688007F7D52068296920F0F8009E
:103D900040EAC10020600DE0C8F80090FFF796FCF3
:103DA000064604E0FFF792FC801B02281FD820681B
:103DB0008007F7D42878000722D5724E74486969C5
:103DC0006C3671B101210160FFF780FC074604E009
:103DD000FFF77CFCC01B022809D830688007F7D5A4
:103DE0000EE0C0F80090FFF771FC074605E083E0A5
:103DF000FFF76CFCC01B02287ED830688007F7D420
:103E00002878400768D5DFF87CA100270AF1380A36
:103E1000DAF80000C0000BD4DAF8001041F080514D
:103E2000CAF80010DAF80000012700F08050009076
:103E3000584E3068C00510D4306840F4807030604F
:103E4000FFF744FC009005E0FFF740FC0099401AA2
:103E5000022851D83068C005F6D54A4EA8686836A1
:103E600001280FD00528306810D020F00100306004
:103E7000306820F004003060A868B8B1FFF726FC75
:103E800000900FE0306840F00100F4E740F00400DB
:103E90003060F7E7FFF71AFC0099411A41F28830C9
:103EA000814264D830688007F4D50EE0FFF70EFC3D
:103EB000009007E0FFF70AFC0099411A41F28830B0
:103EC000814254D830688007F4D42FB1DAF800105A
:103ED00021F08051CAF80010A869C0B3DBF80010C7
:103EE000C1F3810102294AD00228484607D0C8F808
:103EF0006000FFF7EBFB00E039E005463AE047469B
:103F0000C8F86000FFF7E2FB064604E0FFF7DEFBBF
:103F1000801B02282BD820688001F7D4D5E907013F
:103F20000843A96A1C4A490802EB01416A6A41EA4E
:103F30008211084395F82C1040EA01611148001FD6
:103F4000016001203866FFF7C1FB054605E014E07B
:103F5000FFF7BCFB401B022809D820688001F7D579
:103F60000BE000BFFFF7B2FB401B022802D9032081
:103F7000BDE8F88F20688001F4D40020F8E7012024
:103F8000F6E70000083802400038024000004742CF
:103F9000800E4742007000400000FFFFF0B5426E07
:103FA000120E93090B70C2F383034B7002F00302ED
:103FB0008A70426E120CCA70B0F86420120A0A713C
:103FC00090F864204A71826E4FF6FF73120E03EA76
:103FD0000212CA80826ECB88C2F3074243EA1213F0
:103FE000CB8002F00F020A72B0F86820C2F30722F9
:103FF000D3094B72C2F380138B72C2F34013CB729E
:10400000C2F300130B7300264E73446C4FF4007719
:1040100001236CB1012C43D0026840F2FF5191633F
:10402000816B41F08051816380F834300120F0BD14
:104030009207120D0A6190F868200C6944EA820226
:104040000A61C26E0C69120E44EA92140C61C2F34A
:10405000C2040C7502F007024A75C26EC2F3074231
:1040600054098C75C2F38204CC759207520F0A76FC
:10407000B0F86C20C2F307240A7E42EAD4120A7612
:104080000A69521C42650D7EAD1CAA4042650D7A3C
:1040900003FA05F585656D0A6A43C0E917271CE038
:1040A00090F868209206920A0A61C26E0C69120E9C
:1040B00044EA02220A61C26E0C69C2F30742144349
:1040C0000C61B0F86C20C2F307240A69521C4FEA55
:1040D00082224265C0E916720766C4F3801201F8B5
:1040E000192F4FEA84624FEA52624A7010F86C2F1F
:1040F0004C7844EAD2144C7002F07F028A70426815
:104100004FEA12624FEAD214CC70C2F341140C7120
:10411000C2F382044C714FEA82724FEA12728A71C2
:1041200042688C79C2F3074244EA92148C71C2F35C
:104130004014CC710E7202F001024A728288C2F3FE
:1041400007224FEAD2148C72C2F38014CC72C2F3ED
:1041500040140C73C2F300144C73C2F381048C73CB
:1041600002F00302CA7300794FEA500008744B74DE
:104170004FF00000F0BD426C0A60826C4A60C26C75
:104180008A60026DCA60426D0A61826D4A61C26DC9
:104190008A61006EC8610020704770B50446B0F8AF
:1041A000500000250104206804F017F918B1A16B34
:1041B0000143A16304E00021206803F0B9FF054634
:1041C000C5F3432070BD70B5040004D094F83400EA
:1041D000002510B105E0012070BD2577204600F0D4
:1041E00037F8032084F83400204600F007F8A56370
:1041F0002563012084F83400002070BDFEB5002541
:10420000044676200095CDE901502B462A462946E2
:10421000206803F093FF0D4E46F8A05F206803F07E
:104220009FFF012535600220FFF70AF9204604F0C0
:10423000ECFA20B9204604F075FA002805D084F87D
:104240003450A16B0143A1630120FEBD00802542D3
:10425000F0B587B0044614216846FCF700F81D4904
:104260002068884233D11C480024016841F4006171
:104270000160006800F40060059017481438016878
:1042800041F004010160016801F004010591016839
:1042900041F0080101600068022500F00800059067
:1042A0004FF48850CDE9000502AA03260C2782E8C6
:1042B000D00069460948FFF723F90420CDE900053D
:1042C00002AA694682E8D0000548FFF719F907B04D
:1042D000F0BD0000002C01404438024000080240BC
:1042E000000C02402DE9F04F87B09A4617460E4663
:1042F0000446DDF840B0FFF7E9F900903EB194F8CC
:104300003400012807D0A06B40F000500FE0A06BF4
:1043100040F000600BE04FF00008C4F83880E06D1A
:1043200007EB0A01814204D9A06B40F00070A06342
:104330007DE0032084F834002068C0F82C80606C95
:10434000012800D07F024FF40071206803F058FF6D
:1043500040F2FF59012530B12268C2F83890A16BB4
:104360000143A16361E04FF0FF3001904FEA4A2022
:104370000290902003900220CDE90408069501A93F
:10438000206803F0BFFEBAF1010F06D902202063B6
:104390003946206803F0AAFF04E025633946206807
:1043A00003F0BDFF0028D7D140F22A382068416BC6
:1043B00011EA080F22D1406B000409D500272068BC
:1043C00003F0D2FE46F827007F1C082FF7D32036D3
:1043D000BBF1000F05D0FFF779F90099411A594553
:1043E000E4D32168C1F83890A06B40F00040A0638E
:1043F00084F83450032007B0BDE8F08F416BC90545
:1044000009D5BAF1010F06D9616C032903D004F074
:1044100015F80028A0D12068416B090709D5C0F81C
:104420003890A06B40F0080028E084F83450012058
:10443000E1E7416B890705D5C0F83890A06B40F0E3
:1044400002001BE0416B89061AD5C0F83890A06BBA
:1044500040F0200012E000BF03F086FE01C6BBF171
:10446000000F05D0FFF732F90099411A594507D3DB
:104470002168C1F83890A06B40F00040A063D4E7F9
:104480002068416B8902E7D42168C1F8389084F82C
:1044900034500020AFE700002DE9F04F87B09A4676
:1044A00016460D460446FFF711F906903DB194F803
:1044B0003400012807D0A06B40F000500DE0A06B45
:1044C00040F0006009E00020A063E26D06EB0A0105
:1044D000914204D9A06B40F00070A06390E00321EA
:1044E00084F8341021688146C862606C012800D0CD
:1044F00076024FF40071206803F082FE40F2FF580C
:10450000012730B12268C2F83880A16B0143A16352
:1045100017E0BAF1010F06D9202020633146206848
:1045200003F0A6FF05E0102020633146206803F069
:10453000B8FF060008D02168C1F83880A06B30436E
:10454000A06384F834705BE04FF0FF3000904FEAD6
:104550004A200190902002904846CDE90407CDF80A
:104560000C90B9466946206803F0CCFD40F21A3B36
:1045700022E0406B40040AD55FF0000705EB87019D
:10458000206803F004FE7F1C082FF7D32035109815
:1045900030B1FFF79BF80699411A109881420BD36E
:1045A0002168C1F83880A06B3043A06384F8349050
:1045B000032007B0BDE8F08F2068416B11EA0B0FB4
:1045C000D7D0416BC9050FD5BAF1010F0CD9616C79
:1045D000032909D003F032FF30B12268C2F83880D5
:1045E000A16B0143A16309E02068416B090709D56C
:1045F000C0F83880A06B40F0080014E084F83490D4
:104600000120D6E7416B890705D5C0F83880A06B3B
:1046100040F0020007E0416BC0F83880C90604D5BD
:10462000A06B40F01000A063E8E784F8349000200D
:10463000BFE770B515460E46040003D094F8490054
:1046400010B107E0012070BD002084F8480020462A
:1046500000F01AF804F108012068FEF781FC3146E9
:10466000A2682068FEF7A6FCD4E901022946236B64
:10467000FEF756FCA168206850F8212042F00102A4
:1046800040F82120002070BDFEF7ECBE30B590F858
:104690004840012C13D0012480F84840022580F8BE
:1046A00049502BB131F8025B22F8025B5B1EF9D155
:1046B00080F84940002180F84810084630BD0220AB
:1046C00030BD30B590F84840012C13D0012480F85B
:1046D0004840022580F849502BB111F8015B02F8DF
:1046E000015B5B1EF9D180F84940002180F8481039
:1046F000084630BD022030BD30B590F84940042C4A
:1047000017D090F84840012C15D0012480F848407B
:10471000022580F849502BB132F8025B21F8025B88
:104720005B1EF9D180F84940002180F84810084606
:1047300030BD012030BD022030BD30B590F8494079
:10474000042C17D090F84840012C15D0012480F893
:104750004840022580F849502BB112F8015B01F85E
:10476000015B5B1EF9D180F84940002180F84810B8
:10477000084630BD012030BD022030BD10B5401EBE
:10478000B0F1807F01D3012010BD4FF0E0246061C3
:104790000F21601701F0E5FC0020A06107202061D7
:1047A000002010BD7047704730B590F83820012ABE
:1047B00020D0012280F83820022380F839300368A5
:1047C0005C6824F070045C6003685C680D682C43CE
:1047D0005C6003689C6824F080049C6003689C68AB
:1047E00049680C439C6080F83920002180F838101B
:1047F000084630BD022030BD10B5040003D094F847
:10480000390010B107E0012010BD002084F8380005
:10481000204600F00DF8022084F83900211D2068A0
:1048200004F08CFE012084F83900002010BD000047
:1048300008B50068B0F1804F12D10A48016841F014
:10484000010101600068002200F0010000901146A3
:104850001C20FFF7FBF8BDE808401C20FFF7EAB872
:1048600008BD0000403802400168CA6842F00102F9
:10487000CA600068016841F00101016000207047D2
:104880000168CA6822F00102CA600068016A41F248
:104890001112114207D1016A9210114203D101682D
:1048A00021F0010101600020704770B5044690F8C6
:1048B0003800012817D0012584F83850022084F8E8
:1048C00039002068826822F0770222F47F428260F9
:1048D0000868502837D00DDC202859D005DC88B373
:1048E000102841D151E0022070BD302853D040281B
:1048F0003AD13FE060282ED070280BD0B0F5805F11
:1049000003D0B0F5005F2FD110E02068816821F05E
:10491000070115E0CB68D1E90121206804F06EFEA3
:104920002168886840F0770088601DE0CB68D1E995
:104930000121206804F062FE2068816841F4804112
:10494000816011E01EE0CA684968206804F068FED2
:104950005021206806E0CA684968206804F071FEAA
:104960006021206804F054FE84F83950002084F857
:10497000380070BDCA684968206804F051FE4021C3
:104980002068EFE700212068ECE710212068E9E7C4
:1049900020212068E6E730212068E3E7704770B502
:1049A0000446006801694FF00005C943890715D422
:1049B000C168C943890711D4E91E0161012020762D
:1049C000206880698007204602D0FFF7E7FF04E0F7
:1049D00000F098F8204600F096F8257620680169E6
:1049E000C943490717D4C168C943490713D46FF0B5
:1049F00004010161022020762068806910F4407F64
:104A0000204602D0FFF7CAFF04E000F07BF8204602
:104A100000F079F8257620680169C943090716D4A2
:104A2000C168C943090712D46FF00801016104206D
:104A300020762068C0698007204602D0FFF7AEFFCD
:104A400004E000F05FF8204600F05DF8257620686D
:104A50000169C943C90617D4C168C943C90613D43B
:104A60006FF010010161082020762068C06910F401
:104A7000407F204602D0FFF791FF04E000F042F8AB
:104A8000204600F040F8257620680169C943C9072F
:104A900008D1C168C943C90704D1891E01612046F4
:104AA00000F032F820680169C943090609D4C168D9
:104AB000C943090605D46FF0800101612046FFF764
:104AC00071FE20680169C943490609D4C168C94318
:104AD000490605D46FF040010161204600F01EF840
:104AE00020680169C94389060BD4C168C943890696
:104AF00007D46FF0200101612046BDE87040FFF748
:104B000052BE70BD704770470249012008700249CB
:104B1000087070472600002000000020704770B524
:104B2000040004D094F83900002510B106E00120FB
:104B300070BD84F83850204600F022F8242084F814
:104B400039002068C16821F40051C160204604F09A
:104B5000A3FE2068016921F4904101612068416948
:104B600021F02A0141612068C16841F40051C1600F
:104B7000E563202084F8390084F83A00002070BDF5
:104B800010B586B0044614216846FBF768FB14494B
:104B90002068884221D11348016841F0100101606A
:104BA000006800F0100005900E481438016841F0CC
:104BB000010101600068694600F0010005904FF4B2
:104BC000C060009002200190012002900320039019
:104BD000072004900448FEF793FC06B010BD0000C7
:104BE0000010014044380240000002402DE9F84323
:104BF000044690F83A00994616460D4620284FD1B3
:104C000095B18EB194F83800012849D0012084F87C
:104C100038000027E763222084F83A00FEF756FDAB
:104C2000A6858046E68531E00120BDE8F883E08D69
:104C3000401EE085A0684346B0F5805F4FF000025B
:104C40004FF020012046CDF8009004D004F07AFF08
:104C500098B10320E9E704F075FF0028F9D1206935
:104C600000282068406803D0C1B225F8011B0DE080
:104C7000C0F3080125F8021B08E02069002820681D
:104C8000406801D000F07F0005F8010BE08D00289E
:104C9000CDD1202084F83A0084F838700020C4E791
:104CA0000220C2E72DE9F843044690F839001F4678
:104CB00016460D46202850D1A5B19EB194F8380073
:104CC00001284AD0012084F838004FF00008C4F8C9
:104CD0003C80212084F83900FEF7F8FCA684814648
:104CE000E68426E00120BDE8F883E08C401EE084E5
:104CF000A0684B46B0F5805F4FF000024FF0800196
:104D00002046009703D004F01DFFE8B90DE004F041
:104D100019FFC8B928882168C0F3080048602069D5
:104D200008B16D1C05E0AD1C03E0216815F8010B0E
:104D30004860E08C0028D8D14B4600224021204614
:104D4000009704F0FFFE08B10320CCE7202084F890
:104D5000390084F838800020C5E70220C3E7FEE769
:104D600008B5094B5A7861B102435A704FF47A7012
:104D7000054A00900123521C4E210448FEF730FDE5
:104D800008BD8243F1E7000010000020041D002050
:104D900001684A69D24352050CD46FF480624A61BB
:104DA00004210164002140F8301F20224273017366
:104DB0000120704700207047F8B50446C06A1E46BF
:104DC0000D461746042807D0012805D010F5803F6E
:104DD00002D0206B122804D12068016841F4807150
:104DE0000160134600224FF001112046009600F0AA
:104DF0006CF8A0B92069B0F5804F12D00620216868
:104E000000EAD51040F0F000086133463A460E49FA
:104E1000204600F08BF838B1206C042811D0032014
:104E2000F8BD05F0FE0000E0E8B22168086106491F
:104E300033463A46891F204600F078F80028EBD127
:104E4000F8BD0120F8BD00000800010008B5094BBD
:104E50005A7961B102435A714FF47A70054A009051
:104E60000123521D44210448FEF7BAFC08BD8243C9
:104E7000F1E7000010000020041D002070B5164668
:104E80000D4604461AE02046FFF782FF08B10120D4
:104E900070BD681C12D025B1FEF718FC801BA8421B
:104EA0000CD954F8400F40F0200044F810090020BD
:104EB0002060202161732073032070BD2068406949
:104EC000C0434007DFD4002070BD2DE9F0471E46E7
:104ED00090460D460446C1F30747DDF8209012E0E6
:104EE000701C10D02EB1FEF7F1FBA0EB0900B04210
:104EF00009D9002044F8300F20216173A07320737A
:104F00000320BDE8F0872068012F0AD0806925EAD8
:104F100000000004000C06D000214145E0D0002034
:104F2000EFE74069F3E70121F7E700002DE9F047DB
:104F30009A4691460D46044600264FF02008C1F3DC
:104F400007472AE020684069C043400512D4206822
:104F5000016841F40071016021686FF4806048616C
:104F600004202064266384F83D8084F83C6001209E
:104F7000BDE8F087B9F1FF3F0FD0B9F1000F05D0C0
:104F8000FEF7A4FBA0EB0A01494506D944F8306FAF
:104F900084F80D8026730320EAE72068012F07D0EC
:104FA000D0F8180025EA00000004000CE0D0C9E7A2
:104FB0004069F7E770B516460D4604461AE02046EC
:104FC000FFF7E6FE08B1012070BD681C12D025B1C4
:104FD000FEF77CFB801BA8420CD954F8400F40F030
:104FE000200044F810090020206020216173207304
:104FF000032070BD20684069C0430006DFD4002054
:1050000070BD000070B5064600F046F81624064D47
:10501000012806D0304601F013F9002803D00328F8
:1050200001D02C70012070BD4C00002070B5194DCE
:105030000646002028700AF061FF002430200AF0A4
:10504000BFFF642006F082FC641CE4B2642CF5D33C
:105050000AF046FF3046FFF7D5FF012E01D038B9E0
:105060000EE0002803D02878162801D0032070BD58
:105070000AF044FF53200AF0A3FF0AF031FF02E0D8
:1050800004F0F2FA08B1162070BDFCF75BFD0020B9
:1050900070BD00004C00002008B50CA00068009016
:1050A00006F062FA0421684603F032FD022004F0A3
:1050B000B1FF022805D3064800783E2803D00D280A
:1050C00001D0012008BD002008BD00005343530D4E
:1050D000741900201D4810B504790721052006F039
:1050E00057F900281CD1072105200BF045F8B0F531
:1050F000FA7F15D84C2C1ED007DC412C18D0452C3B
:1051000013D0472C0CD147210CE04E2C09D0522C47
:1051100015D0532C04D10AF0CBFF00BF01F032F8B8
:1051200010BD4E2109F0D5FF07E006F015FC04E0A4
:1051300006F076FE01E007F055FE20B9EEE707F035
:105140002DFF0028ECD0002010BD0000D813002057
:105150002DE9F04FDD4D074693B06868FBF795F9F0
:105160000E4646EC100B04469FEDD91B51EC100B7C
:1051700053EC112BFBF7A8F8FBF7B3F946EC104BF7
:105180009FEDD51B049053EC112B51EC100BFBF74A
:105190009BF8FBF7A6F946EC104B9FEDD11B059051
:1051A00053EC112B51EC100BFBF78EF8FBF799F930
:1051B00046EC104B9FEDCC1B069053EC112B51ECA1
:1051C000100BFBF781F8FBF78CF946EC104B9FEDC9
:1051D000C81B079053EC112B51EC100BFBF774F824
:1051E000FBF77FF946EC104B9FEDC31B089053EC87
:1051F000112B51EC100BFBF767F8FBF772F946EC3B
:10520000104B9FEDBF1B099053EC112B51EC100B71
:10521000FBF75AF8FBF765F946EC104B9FEDBA1B0C
:105220000A9053EC112B51EC100BFBF74DF8FBF7E8
:1052300058F946EC104B9FEDB61B0B9053EC112B1D
:1052400051EC100BFBF740F8FBF74BF90C90642086
:10525000FEF7F6F806F088F907200D26A7F5D851D5
:105260004FF00A0A583908D0A7F51C5010380DD055
:10527000A7F59C40203814D020E018212822CDE941
:105280000002CDE902160023082208E0402139225D
:10529000CDF800A00396CDE90121002308229EA1AC
:1052A00009E0722114227020CDE90021CDE9020627
:1052B0000023082298A19C4805F00EF907219A487E
:1052C00003F026FC00244FF0440BA946D5E06420EF
:1052D00006F03CFB204608F013FF06F015F900210C
:1052E000A4B9914853214030412280F800A0467073
:1052F0008170C2704D220271502242714C22827123
:105300004522C27101723A2141720A218648002366
:10531000864A403032F813703F0A4754491C32F82D
:105320001370C9B25B1C4754491CDBB2C9B20C2BC9
:10533000F0D300270DF1340802EB4703B3F918301E
:10534000002B00DA5B4248F827304FEA132C00F8B4
:1053500001C0491CC9B27F1C4354491CFFB2C9B2E9
:10536000062FE9D35FF0000302EB4307B7F824C030
:105370004FEA1C2C00F801C0491CBF8CC9B25B1C51
:105380004754491CDBB2C9B2062BEDD392F8463024
:1053900003F03F0382F8463092F846304354491CEC
:1053A000C9B2002302EB4307B7F834C04FEA1C2C04
:1053B00000F801C0491CBF8EC9B25B1C4754491C90
:1053C000DBB2C9B2032BEDD395F859700023422FFD
:1053D00066D002EB430CBCF83A804FEA182800F87C
:1053E0000180491CBCF83A80C9B200F80180491C10
:1053F000BCF84080C9B24FEA182800F80180491C67
:10540000BCF840C0C9B200BF00F801C0491C5B1C19
:10541000DBB2C9B2032BDAD36A68521EA24216D19C
:1054200000F801A0491CC9B254224654491CC9B213
:1054300000F801B0491CC9B24254491CC9B25322F8
:105440004254491CC9B24F224254491CC9B2582285
:1054500042543548403003F067FB00250DF110073A
:1054600057F82500A04204D103F03EFB6420FDF76D
:10547000E7FF6D1C092DF3D3641CD9F804004D46D9
:10548000A0423FF624AF03F02FFB0AF029FD0220D3
:1054900004F0C0FD022811D2022013B0BDE8F08F45
:1054A00000F801B0491CC9B2DC4600F801B0491C43
:1054B000C9B200F801B0491CC9B2A5E71A48007882
:1054C0003E2801D00120E8E70020E6E7840D002017
:1054D0009A9999999999B93F9A9999999999C93F9E
:1054E000333333333333D33F9A9999999999D93FC9
:1054F000000000000000E03F333333333333E33F39
:10550000666666666666E63F9A9999999999E93F53
:10551000CDCCCCCCCCCCEC3F2563202563256325BA
:1055200063256325630000007419002068140020BF
:105530001FB504466420FDF783FF06F015F83220FE
:1055400000EB8400C1B20D22C0F307200023CDE997
:105550000212CDE9003008221AA11E4804F0BCFF57
:1055600007211C4803F0D4FA0121002004F03AFB83
:105570001848C821403003F0CBFAC821164803F080
:10558000C7FA0021012004F02DFB1248E121403030
:1055900003F0BEFA1048E121193003F0B9FA0AF01D
:1055A0009FFC022004F036FD022802D2022004B043
:1055B00010BD084800783E2801D00120F7E7002000
:1055C000F5E7000025632025632563256325632512
:1055D00063000000741900207C1A00201FB50446E7
:1055E0003220FDF72DFF05F0BFFF0D23E2B2C4F31B
:1055F000072100208DE80F000346082212A116485B
:1056000004F06AFF0721144803F082FA05F07CFFDA
:10561000114812A1403004F05FFF0F4808214030CC
:1056200003F076FA0AF05CFC022004F0F3FC022896
:1056300002D2022004B010BD074800783E2801D0F5
:105640000120F7E70020F5E7256320256325632582
:10565000632563256300000074190020463A303644
:105660002E30302E000000002DE9F0412DED088B8A
:1056700086B00F460546DFEDBD8ABFEE000A06463E
:10568000B0EE688A412804D0422D14D0432D37D182
:1056900023E00025312F06D0322F06D0332F06D03D
:1056A000342F2DD105E0002126E0002127E0012143
:1056B00022E0012123E00125312F06D0322F06D030
:1056C000332F06D0342F1BD105E0022114E0022134
:1056D00015E0032110E0032111E00225312F06D04F
:1056E000322F06D0332F06D0342F09D106E0042103
:1056F00002E0042103E00521002001E00521012052
:10570000DFF86CC29CF85830312B19D0DFED99AA24
:10571000994A412E52F8258000EE908A02EB8508C6
:10572000F8EE609AD8ED030AB8EE60AAD8ED090A3F
:10573000B8EE609A07D0422E05D0432E03D00AE07F
:10574000DFED8EAAE4E702EBC10101EB8000D0EDB2
:105750000F0AB8EE608AF5EEC09AF1EE10FA01D2A7
:1057600069EE809AB5EEC0AAF1EE10FA01D22AEEE7
:1057700000AAB5EEC09AF1EE10FA01D229EE009A15
:10578000B5EEC08AF1EE10FA01D228EE008AE046AA
:10579000312B0CEB850027D0D0F88800FAF775FE86
:1057A0009FED771B53EC112BFAF700FEFAF7DEFEA4
:1057B00000EE100A692060F307046E2060F30F24E6
:1057C000632060F31744682060F31F6408EB8500D2
:1057D000D0ED250AF8EE600AF5EEC00AF1EE10FAF7
:1057E00018D080EE201A17E0C06FFAF74EFE9FED3A
:1057F000661B53EC112BFAF7D9FDFAF7B7FE00EE52
:10580000100A6D2060F3070460F30F24202060F37A
:105810001744D9E7B0EE681A69EE819A2AEE01AA18
:1058200029EE019A28EE018AF4EEEA9AF1EE10FAD6
:105830001CDDB5EEC0AAF1EE10FA14D019EE900AF4
:10584000FAF768FE9FED521B53EC112BFAF73CFD63
:1058500041EC1B0B19EE100AFAF75CFE53EC1B2B04
:10586000FAF76CFE0AD2B0EE689A07E0B0EE688AEA
:10587000F0EE489AB0EE48AAB0EE489A412E1DD0FC
:10588000422E1BD0432E19D0322F45D0332F58D063
:10589000342F2CD119EE100AFAF73CFE250EC4F372
:1058A0000743C4F30722CDE90001E4B2CDE9024287
:1058B000CDE90435384A39A13D483FE098F8090060
:1058C000312818EE100A17D0FAF724FE250EC4F37B
:1058D0000742C4F307230595CDE90332E4B28DE80E
:1058E00013003B46324633A1314804F0F5FD06B0C3
:1058F000BDEC088BBDE8F081FAF70CFE220EC4F374
:105900000743CDE90432C4F30725E4B28DE8330040
:1059100032462EA1264811E019EE900AFAF7FAFD58
:10592000230EC4F30742CDE90423C4F30725E4B2F0
:105930008DE83300184A19A1921F1D4804F0CCFDD0
:10594000D5E71AEE100AFAF7E5FD250EC4F3074273
:10595000C4F307230595CDE90332E4B28DE81300C3
:105960000D4A0EA1D21E1248E8E700000000000018
:10597000840D00208FC2753D081200206666A63F88
:105980000000000000408F400000000000002440A4
:10599000666666666666E63F0623002025733A253E
:1059A000362E3366202563256325632563000000BA
:1059B0000A14002025632563203D25342E326620FD
:1059C0002563256325632563000000002563203DD2
:1059D00025342E3266202563256325632563000068
:1059E00010B504490448FDF778FA0249491E0870C9
:1059F00010BD0000030000204405010800B5164852
:105A000087B04FF02041016014494160002181605E
:105A10001022C160C0E904128161C16113020162F8
:105A2000C0E90913C16201634163816341640F20CE
:105A300014230090CDE90103CDE903021120CDE943
:105A40000501002269460448FEF7F3FD002801D055
:105A5000FDF742FA07B000BDB41C0020040100A00D
:105A60002DE9F04786B014216846FAF7F8FB67483D
:105A70000024016841F010010160016801F010018B
:105A80000591016841F004010160016801F0040121
:105A90000591016841F020010160016801F02001D9
:105AA0000591016841F080010160016801F0800109
:105AB0000591016841F040010160016801F0400179
:105AC0000591016841F008010160016801F00801D9
:105AD0000591016841F0010101600068012200F0B8
