:020000040800F2
:10000000989B00209D010008516000087F4B00086C
:10001000C55E00080D160008F7A3000800000000E8
:10002000000000000000000000000000F98C000843
:10003000792400080000000099640008A5970008D2
:10004000B7010008B7010008B7010008B7010008B0
:10005000B7010008B7010008B7010008B7010008A0
:10006000B7010008B7010008B7010008B701000890
:10007000B7010008B7010008B7010008B701000880
:10008000B7010008B7010008B7010008B701000870
:10009000B7010008B7010008B7010008B701000860
:1000A000B7010008B7010008B7010008B701000850
:1000B0000999000815990008B7010008B701000860
:1000C000B7010008B7010008B7010008B701000830
:1000D000B7010008B7010008B7010008B701000820
:1000E000B7010008B7010008B7010008B701000810
:1000F000B7010008B7010008B7010008B701000800
:10010000B7010008B7010008B7010008B7010008EF
:10011000B7010008B7010008B7010008B7010008DF
:10012000B7010008B7010008B7010008B7010008CF
:10013000B7010008B7010008B7010008B7010008BF
:10014000B7010008B7010008B7010008B7010008AF
:10015000B7010008B7010008B7010008B70100089F
:10016000B7010008B7010008B7010008B70100088F
:10017000B7010008B7010008B7010008000000003F
:10018000B7010008B7010008DFF80CD000F0CAFB87
:100190000048004769D30008989B00200648804724
:1001A00006480047FEE7FEE7FEE7FEE7FEE7FEE75C
:1001B000FEE7FEE7FEE7FEE7B598000889010008C4
:1001C0002DE9F05F0546002092469B46884606468C
:1001D000814640241BE0284641464746224600F01F
:1001E00006FA53465A46C01A914110D31146184692
:1001F000224600F0EDF92D1A67EB01084F46224622
:100200000120002100F0E4F917EB00094E41201E07
:10021000A4F10104DFDC484631462A464346BDE8E6
:10022000F09F0000004870473C0C010840EA0103C1
:100230009B0703D009E008C9121F08C0042AFAD29C
:1002400003E011F8013B00F8013B521EF9D2704760
:10025000D2B201E000F8012B491EFBD27047002208
:10026000F6E710B513460A4604461946FFF7F0FFB5
:10027000204610BD421C10F8011B0029FBD1801A3A
:100280007047034611F8012B00F8012B002AF9D121
:100290001846704770B506460AF00EFC046805461D
:1002A0000A220021304600F0B2F92C6070BD70B512
:1002B00006460AF001FC046805460A220021304681
:1002C00000F0A5F92C6070BD2DE9FE4F81EA030412
:1002D00004F0004421F0004100944FF0000B23F0A3
:1002E000004350EA01045ED052EA03045BD0C3F33A
:1002F0000A54C1F30A552C44A4F2F3340194A0FB30
:100300000254C1F3130141F48011C3F3130343F406
:10031000801301FB024400FB034E840A970A44EA5F
:10032000815447EA8357A4FB076802958D0A05FBB1
:1003300007854FEA932C04FB0C542705029D4FEAD6
:10034000065847EA1637B5EB08056EEB070C870E23
:10035000920E47EA811742EA8312A7FB0201B6EB2D
:100360000B0164EB00042B0D43EA0C335E1844EBE5
:100370001C50DA465146E7FB0201C5F313044FEA6D
:100380000B3343EA14534FEA0432019C43EA060359
:10039000A4F10C040294009CCDE900B400F0B5F97E
:1003A00003B0BDE8F08F00200146F9E72DE9F04DDC
:1003B00081EA030404F0004B21F0004514464FF09D
:1003C000000A23F0004150EA050220D054EA01025D
:1003D0001DD0C5F30A570246C5F31303C1F313003A
:1003E000C1F30A5640F4801543F48013A7EB0608C6
:1003F000101BD64608F2FD3873EB050002D308F156
:10040000010801E092185B41B8F1000F03DA002007
:100410000146BDE8F08D00204FF480110646844669
:100420000EE0171B73EB050705D3121B63EB0503E7
:1004300006434CEA010C49084FEA300092185B4130
:1004400050EA0107EDD152EA030012D082EA04001B
:1004500083EA0501084305D0101BAB4106D20122F7
:10046000002306E000224FF0004302E06FF001029B
:1004700053101AEB06004CEB085110EB0A0041EB4D
:100480000B01BDE8F04D00F031B90EB540F233413B
:1004900002910021CDE900110A460B4600F035F922
:1004A00003B000BD70B5C1F30A5201F0004500244D
:1004B000C1F3130140F2FF3341F480119A4201DA93
:1004C000002070BD40F233439A42A2F2334203DC73
:1004D000524200F08CF800E090402C43F1D04042B2
:1004E00070BDC1F30A5210B5C1F3130140F2FF33DE
:1004F00041F480119A4201DA002010BD40F23343EA
:100500009A42A2F2334203DC524200F070F810BD6E
:10051000904010BD00F0004230F000400AD0C10D04
:1005200001F56071C0F3160042EA0151C2084007AC
:1005300011437047002001467047000030B5041E8B
:1005400071F1000404DB4FF00044404264EB010110
:10055000141E73F1000405DB1C464FF000435242A9
:1005600063EB0403994208BF904230BD01F00043A1
:1005700030B421F0004150EA010206D00A0DA2F584
:100580006072C1F31301002A02DC30BC0020704706
:10059000440F44EAC104C100E01830BC00EBC25073
:1005A00000F06DB830B50B46014600202022012432
:1005B00009E021FA02F59D4205D303FA02F5491B31
:1005C00004FA02F52844151EA2F10102F1DC30BD47
:1005D000202A04DB203A00FA02F100207047914003
:1005E000C2F1200320FA03F3194390407047202AF8
:1005F00004DB203A21FA02F00021704721FA02F3CD
:10060000D040C2F1200291400843194670472DE9BD
:10061000F04791460F4680460446002614F8015BD9
:100620002DB1FFF7FFFD0068405DC007F6D12B2D0F
:1006300002D02D2D18D0641E4A463946204600F0BF
:1006400095F927B13968A14201D1C7F80080710539
:100650004FF002040BD54042002803DD0AF02CFACB
:100660000460A007BDE8F08746F48066E4E7002850
:10067000F8DA0AF021FA04606FF00040F2E700298E
:10068000A8BF7047401C490008BF20F00100704718
:1006900010B4B0FA80FC00FA0CF050EA010404BF78
:1006A00010BC704749B1CCF1200421FA04F411FACE
:1006B0000CF118BF012121430843A3EB0C01CB1D12
:1006C0004FEA00614FEA102042BF002010BC704783
:1006D00000EBC35010440029A4BF10BC7047401C5D
:1006E000490008BF20F0010010BC704710B5141E6F
:1006F00073F1000408DA401C41F1000192185B41DB
:100700001A4301D120F0010010BD2DE9F04D9246B1
:100710009B4611B1B1FA81F202E0B0FA80F22032C8
:100720009046FFF755FF04460F4640EA0A0041EAAB
:100730000B0153465A46084313D0114653EA0100B1
:1007400019D0C8F140025046FFF751FF05460E464A
:10075000504659464246FFF73BFF084305D001206B
:1007600004E020463946BDE8F08D0020054346EA06
:10077000E0762C4337430A986305E40AA0EB0800AF
:100780000022FD0A44EA47540A3002D500200146FF
:10079000E9E7010510196941DDE9084500196941DA
:1007A000BDE8F04DA2E72DE9FE4F804681EA030047
:1007B000C00F0C46009021F0004123F00045B8EB3B
:1007C0000200A94105D24046214690461C460B46F0
:1007D000024623F00040104347D0270DC7F30A001C
:1007E000C3F30A510290401A019040286BDAC3F318
:1007F000130040F4801B0098924620B10023D2EBF6
:10080000030A63EB0B0B01985946C0F140025046B6
:10081000FFF7DEFE06460D4650465946019A00F0A7
:1008200093F810EB08006141002487EA115284EA32
:10083000E7731A4340D0009A62B3019A012A4FEA43
:10084000075215DC001B61EB02014FF0004202EA87
:100850000752CDE90042001C41F5801132462B467B
:10086000FFF753FF03B0BDE8F08F40462146F9E79C
:10087000001B61EB0201001C41F5801300185B4175
:100880002018A2F5001747EB030140EAD570B6190E
:100890006D4111E06D084FEA360645EAC0754FEA32
:1008A0000752001B61EB0201001C41F58011490851
:1008B0004FEA30000019514132462B4603B0BDE8E3
:1008C000F04FFFF713BF0098012240000023D0EB48
:1008D000020263EBE073009821464FEAE074B8EB44
:1008E000000061EB0401E9E783F000435BE781F07E
:1008F000004158E7C1F30A52C1F3130140F2FF333C
:1009000041F480119A4202DA00200146704740F219
:1009100033439A42A2F2334202DC5242FFF767BEEF
:10092000FFF756BE064C074D06E0E06840F00103B5
:1009300094E8070098471034AC42F6D3FFF728FC40
:10094000240D0108440D0108202A06DBCB17203AAC
:1009500041FA02F043EAE07306E041FA02F3D040C4
:10096000C2F1200291400843194670472DE9F05F1B
:1009700082460078002715468B460AF10104B946E5
:10098000302801D09DB113E014F8010B012778281D
:1009900003D0582801D045B10AE00DB1102D07D180
:1009A0000027102514F8010B02E0082500E00A25B5
:1009B0000026B0460EE005FB080005FB06F1012706
:1009C00001EB10461FFA80F8B6F5803F00D3B94618
:1009D00014F8010B294600F018F80028EBDABBF1F7
:1009E000000F05D00FB1641E00E05446CBF8004064
:1009F000B9F1000F06D00AF05FF802210160C81EAD
:100A0000BDE8F09F48EA0640FAE73A2800D23038BD
:100A100020F02002412A01D3A2F13700884201D3FD
:100A20004FF0FF30704770B58D1810F8014B14F07F
:100A3000030201D110F8012B231106D110F8013B5C
:100A400003E010F8016B01F8016B521EF9D1ABB154
:100A500010F8012B04F00C048A1A0C2C03D0A2EB22
:100A600084129B1C08E010F8014BA2EB0422F8E76B
:100A700012F8014B01F8014B5B1EF9D5A942D4D302
:100A8000002070BDF0B595B0002007464FEA0D0676
:100A900026F81070401C1028FAD300200DF1200514
:100AA00025F81070401C1028FAD3FF4C002000BF1E
:100AB00024F81070401C0C28FAD3002004EB4001ED
:100AC0008F84401C0828F9D34FF63B70CDE91007FE
:100AD00010A9F648129702F0C5FCFF20CDE91007D7
:100AE00010A9F348129702F0BDFCF2480121816180
:100AF0008100816100BF00BF00BF00BF00BF00BF19
:100B000000BF00BF00BF00BF4FF48022826100BF62
:100B100000BF00BF00BF00BF00BF00BF00BF00BFDD
:100B200000BF0822826100BF00BF00BF00BF00BF3E
:100B300000BF00BF00BF00BF00BF816100BF00BF9A
:100B400000BF00BF00BF00BF00BF00BF00BF00BFAD
:100B5000826100BF00BF00BF00BF00BF00BF00BF79
:100B600000BF00BF00BF816100BF00BF00BF00BF6A
:100B700000BF00BF00BF00BF00BF00BF826100BF59
:100B800000BF00BF00BF00BF00BF00BF00BF00BF6D
:100B900000BF816100BF00BF00BF00BF00BF00BF3A
:100BA00000BF00BF00BF00BF826100BF00BF00BF29
:100BB00000BF00BF00BF00BF00BF00BF00BF81611A
:100BC00000BF00BF00BF00BF00BF00BF00BF00BF2D
:100BD00000BF00BF826100BF00BF00BF00BF00BFF9
:100BE00000BF00BF00BF00BF00BF816100BF00BFEA
:100BF00000BF00BF00BF00BF00BF00BF00BF00BFFD
:100C0000826100BF00BF00BF00BF00BF00BF00BFC8
:100C100000BF00BF00BF816100BF00BF00BF00BFB9
:100C200000BF00BF00BF00BF00BF00BF826100BFA8
:100C300000BF00BF00BF00BF00BF00BF00BF00BFBC
:100C400000BF9A4B10331F68ADF80070984F1037F3
:100C5000D7F800C0ADF820C0816100BF00BF00BF61
:100C600000BF00BF00BF00BF00BF00BF00BF826168
:100C700000BF00BF00BF00BF00BF00BF00BF00BF7C
:100C800000BF00BFD3F800C0ADF802C0D7F800C065
:100C9000ADF822C0816100BF00BF00BF00BF00BF30
:100CA00000BF00BF00BF00BF00BF826100BF00BF28
:100CB00000BF00BF00BF00BF00BF00BF00BF00BF3C
:100CC000D3F800C0ADF804C0D7F800C0ADF824C018
:100CD000816100BF00BF00BF00BF00BF00BF00BFF9
:100CE00000BF00BF00BF826100BF00BF00BF00BFE8
:100CF00000BF00BF00BF00BF00BF00BFD3F800C0EF
:100D0000ADF806C0D7F800C0ADF826C0816100BFBD
:100D100000BF00BF00BF00BF00BF00BF00BF00BFDB
:100D200000BF826100BF00BF00BF00BF00BF00BFA7
:100D300000BF00BF00BF00BFD3F800C0ADF808C0BF
:100D4000D7F800C0ADF828C0816100BF00BF00BF68
:100D500000BF00BF00BF00BF00BF00BF00BF826177
:100D600000BF00BF00BF00BF00BF00BF00BF00BF8B
:100D700000BF00BFD3F800C0ADF80AC0D7F800C06C
:100D8000ADF82AC0816100BF00BF00BF00BF00BF37
:100D900000BF00BF00BF00BF00BF826100BF00BF37
:100DA00000BF00BF00BF00BF00BF00BF00BF00BF4B
:100DB000D3F800C0ADF80CC0D7F800C0ADF82CC017
:100DC000816100BF00BF00BF00BF00BF00BF00BF08
:100DD00000BF00BF00BF826100BF00BF00BF00BFF7
:100DE00000BF00BF00BF00BF00BF00BFD3F800C0FE
:100DF000ADF80EC0D7F800C0ADF82EC0816100BFBD
:100E000000BF00BF00BF00BF00BF00BF00BF00BFEA
:100E100000BF826100BF00BF00BF00BF00BF00BFB6
:100E200000BF00BF00BF00BFD3F800C0ADF810C0C6
:100E3000D7F800C0ADF830C0816100BF00BF00BF6F
:100E400000BF00BF00BF00BF00BF00BF00BF826186
:100E500000BF00BF00BF00BF00BF00BF00BF00BF9A
:100E600000BF00BFD3F800C0ADF812C0D7F800C073
:100E7000ADF832C0816100BF00BF00BF00BF00BF3E
:100E800000BF00BF00BF00BF00BF826100BF00BF46
:100E900000BF00BF00BF00BF00BF00BF00BF00BF5A
:100EA000D3F800C008E00000201600200004024033
:100EB0000008024000000240ADF814C0D7F800C09E
:100EC000ADF834C0816100BF00BF00BF00BF00BFEC
:100ED00000BF00BF00BF00BF00BF826100BF00BFF6
:100EE00000BF00BF00BF00BF00BF00BF00BF00BF0A
:100EF000D3F800C0ADF816C0D7F800C0ADF836C0C2
:100F0000816100BF00BF00BF00BF00BF00BF00BFC6
:100F100000BF00BF00BF826100BF00BF00BF00BFB5
:100F200000BF00BF00BF00BF00BF00BFD3F800C0BC
:100F3000ADF818C0D7F800C0ADF838C0816100BF67
:100F400000BF00BF00BF00BF00BF00BF00BF00BFA9
:100F500000BF826100BF00BF00BF00BF00BF00BF75
:100F600000BF00BF00BF00BFD3F800C0ADF81AC07B
:100F7000D7F800C0ADF83AC0816100BF00BF00BF24
:100F800000BF00BF00BF00BF00BF00BF00BF826145
:100F900000BF00BF00BF00BF00BF00BF00BF00BF59
:100FA00000BF00BFD3F800C0ADF81CC0D7F800C028
:100FB000ADF83CC0816100BF00BF00BF00BF00BFF3
:100FC00000BF00BF00BF00BF00BF826100BF00BF05
:100FD00000BF00BF00BF00BF00BF00BF00BF00BF19
:100FE0001A68ADF81E203A68ADF83E20816100BF56
:100FF00000BF00BF00BF00BF00BF00BF00BF00BFF9
:1010000000BF0421816100BF00BF00BF00BF00BF5F
:1010100000BF00BF00BF00BF00BF4FF4803181613F
:101020000122002349100F465FF0000036F810C07F
:1010300032EA0C0C05D134F813C04CEA070C24F842
:1010400013C07F08401C1028F0D35200012B11D090
:10105000042B12D05B1C0C2BE5D301260022084682
:10106000002304EB420700BF35F813C036EA0C0C2E
:1010700006D00BE052000223D5E792000523D2E709
:10108000B7F824C04CEA000CA7F824C040085B1C49
:10109000102BE9D37600521C082AE0D315B0F0BD1E
:1010A00010B50A4900223024312344280BD00B709C
:1010B000521CD2B2491C062AF7D300F009F804F0FA
:1010C000D9FF002010BD0C70F2E70000210E0020B7
:1010D000274908B5274891F845304279312B35D05A
:1010E00002F0FE02427191F84620312A427930D056
:1010F00002F0FD02427191F84720312A42792BD04B
:1011000002F0FB02427191F84820312A427926D040
:1011100002F0F702427191F84920312A427921D038
:1011200002F0EF02427191F84A103129D1B21CD07D
:1011300001F0DF0141714FF47A700E4A00900123F3
:10114000521D44210C4802F079FA08BD42F0010218
:10115000C8E742F00202CDE742F00402D2E742F0D3
:101160000802D7E742F01002DCE741F02001E1E796
:10117000DC0D0020100000208C340020F0B5DFEDE5
:101180003A0A059D394C0646C5ED000A94F85C7094
:10119000374C002004EBC204413F04EB83020B2FC9
:1011A0002BD2DFE807F0063A3D3D47513D4751510C
:1011B0005100106E312E21D0322E22D0332E1CD170
:1011C000D2F8C000002818D000EE100ADFED291A6E
:1011D0002A4AB8EE400A81EE801A9FED270A21EED6
:1011E000000A10EE101A85ED000A914212DDDFEDC3
:1011F000240A30EE600A85ED000AF0BDD2F89000B6
:10120000F0BDD2F8901019B1884201D9401AF0BD52
:101210000020F0BDC5ED000AF0BD54F82300F0BD7C
:10122000302903D054F82310126E0AE0106EF0BD7E
:10123000881AF0BD3029F0D03129F7D0116E54F85A
:1012400023209142F4D8F0BD3029E6D03129EDD0E9
:10125000322904D03329F6D1116E106BD6E754F839
:101260002310106ED2E7000000000000DC0D00200B
:10127000C810002000FF7F470000B4430000BE43B9
:101280000000BE430A4908B54A7801280DD022F073
:10129000010048704FF47A70054A00900123521CF7
:1012A0004E21044802F0CAF908BD42F00100F0E7FF
:1012B000100000208C34002008B5094B01295A7811
:1012C0000CD082435A704FF47A70054A0090012383
:1012D000521C4E21034802F0B1F908BD0243F1E768
:1012E000100000208C340020084808B54178074AD7
:1012F00041F0200141704FF47A7000900123521C9C
:101300004E21034802F09AF908BD000010000020A9
:101310008C34002008B5094B01295A780CD00243BF
:101320005A704FF47A70054A00900123521C4E21E6
:10133000034802F083F908BD8243F1E71000002062
:101340008C34002010B5FFF7CFFF4FF4967002F0F9
:1013500029F800210420FFF7DDFF01210220FFF71B
:10136000D9FF962002F01EF800210820FFF7A4FF05
:101370004FF4FA7002F016F801210820FFF79CFFE5
:1013800001211020FFF798FF322002F00BF8002017
:10139000FFF778FF40F2DC5002F004F80021102043
:1013A000FFF78AFFBDE81040642001F0FBBF10B5D5
:1013B000FFF79AFF4FF4967001F0F4FF012104202B
:1013C000FFF7A8FF00210220FFF7A4FF962001F0FD
:1013D000E9FF00210820FFF76FFF4FF4FA7001F0DA
:1013E000E1FF01210820FFF767FF01211020FFF72F
:1013F00063FF322001F0D6FF0020FFF743FF40F2E9
:10140000DC5001F0CFFF00211020FFF755FFBDE8B1
:101410001040642001F0C6BF70B5154C1E25207920
:10142000432801D052281ED16179312902D03029B8
:101430000BD018E0432803D101211020FFF73CFF17
:10144000207952280ED1002109E0432803D1002140
:101450001020FFF731FF2079522803D10121082005
:10146000FFF72AFF002504F005FE284670BD0000A6
:101470009215002010B50120FFF704FF4FF47A7099
:1014800001F090FF00210420FFF744FF002102201B
:10149000FFF740FF01211020FFF70EFF4FF4967475
:1014A000204601F07FFF01210820FFF705FF002102
:1014B0001020FFF701FF04F0E5FD2046BDE81040D5
:1014C00001F070BF0146014802F055BD0033002015
:1014D00010B5044802F061FD042801D0012010BDC0
:1014E000002010BD0033002082B001208DF80000E4
:1014F0009DF80000012802D0012002B07047024888
:1015000002B002F060BD00000033002038B50024B6
:10151000009313460A460146034802F0E3FD00B17A
:101520000124204638BD00000033002038B50024D7
:10153000009313460A460146034802F0ADFE00B18F
:101540000124204638BD0000003300201B4910B59F
:1015500008790024312802D0322815D02BE04879B0
:10156000174B4FF48071312802D0302806D022E08A
:101570000022184602F057F812A119E0012218467D
:1015800002F051F813A113E04879164B312802D02C
:10159000302807D00FE000222021184602F043F83F
:1015A00011A105E001222021184602F03CF812A109
:1015B000154809F06DFA204610BD00009215002074
:1015C00000140240436861726765722031204F4EFB
:1015D00000000000436861726765722031204F4649
:1015E0004600000000000240436861726765722097
:1015F00032204F4E00000000436861726765722020
:1016000032204F464600000060150020FEE7000033
:1016100008B5094B0129DA780CD08243DA704FF40F
:101620007A70054A00900123D21C4221034802F03F
:1016300005F808BD0243F1E7100000208C340020BB
:1016400008B50BA0006800900AF06AFA022168460B
:1016500007F0F0FB022008F075FF022805D30548CB
:1016600000784E2801D0002008BD012008BD0000F0
:10167000160D0000C03000202DE9FF4F8DB00C4644
:1016800005469A46302101A8DDF868B0FEF7E7FD6F
:1016900050490023DFF84091CA680092D1F808E071
:1016A0004E491E4618464F7A01A9002235B109EB72
:1016B000C60C0CEB800CDCF890C01DE0DDF83CC0E3
:1016C000BCF1310F06D0BCF1320F0AD0BCF1330FA0
:1016D00016D10BE009EBC60C0CEB800CDCF860C0FB
:1016E0000AE009EBC60C5CF820C005E009EBC60C6B
:1016F0000CEB800CDCF830C001EB031848F822C07A
:10170000312F02D0322F12D107E0312C02D0002A23
:1017100007DC0CE0002A10DC09E0312C0BD0012A98
:1017200005DD01EB0318DDF800C048F822C0401CBD
:10173000022807D007E0012AF9DD01EB031848F879
:1017400022E0F4E70020012A01D0032A00D1761C10
:10175000521C042AAADB5B1C032BA6DB312C049849
:1017600001AC009094E80E004FF004001AD009F08C
:1017700063FECAF800000898009005AC042094E8C5
:101780000E0009F059FECBF800000C98009009AC4F
:10179000042094E80E0009F04FFE1B99086011B078
:1017A000BDE8F08F09F037FECAF8000008980090F5
:1017B00005AC042094E80E0009F02DFECBF80000E3
:1017C0000C98009009AC042094E80E0009F023FE68
:1017D000E3E7000024000020C8100020DC0D0020FA
:1017E00070B5284C00252079312813D16079312833
:1017F00002D0302806D043E00121084605F0F2FC73
:1018000021A104E00021012005F0ECFC23A12848DF
:1018100009F03EF92079322813D16079312802D0BD
:10182000302806D02CE00121022005F0DBFC21A1AC
:1018300004E00021022005F0D5FC23A11C4809F09A
:1018400027F9207933281BD16079312802D030283C
:101850000AD015E00121084605F0C4FC0121022050
:1018600005F0C0FC1DA108E00021012005F0BAFC34
:101870000021022005F0B6FC1FA10D4809F008F96F
:10188000284670BD921500204368616E6E656C201D
:101890003120506F776572204F4E00004368616EB3
:1018A0006E656C203120506F776572204F46460080
:1018B000601500204368616E6E656C203220506FA9
:1018C000776572204F4E00004368616E6E656C2034
:1018D0003220506F776572204F4646004368616E34
:1018E0006E656C203120616E64203220506F776508
:1018F00072204F4E000000004368616E6E656C20E0
:101900003120616E64203220506F776572204F461F
:101910004600000070B5054600264E240DF026FE58
:101920007D4942F2D7324DF28660312D04D0322DFE
:1019300013D0342D34D0E8E00B88934205D20B89C4
:10194000934202D20B8A934277D30A888242F2D919
:101950000A898242EFD9098AC1E00B8893420ED2EC
:101960004B8893420BD20B89934208D24B89934206
:1019700005D20B8A934202D24B8A93425DD30A88E6
:1019800082426FD94A8882426CD90A89824269D9D7
:101990004A89824266D90A8A824263D9498A9EE08C
:1019A0000B88934250D24B88934201D2012300E02E
:1019B00000238D88954201D2012500E000252B42AD
:1019C00042D0CB88934201D2012300E000230D894D
:1019D000954201D2012500E000252B4234D04B89ED
:1019E000934201D2012300E000238D89954201D268
:1019F000012500E000252B4226D0CB89934201D25D
:101A0000012300E000230D8A954201D2012500E068
:101A100000252B4218D04B8A934201D2012300E0CB
:101A200000238D8A954202D2012501E005E00025C0
:101A30002B4209D0CB8A934206D24F240121802029
:101A400003F014F9002156E00A8882425DD94A88E1
:101A5000824201D9012200E000228B88834202D910
:101A6000012301E051E000231A424ED0CA8882428D
:101A700001D9012200E000220B89834201D9012310
:101A800000E000231A4240D04A89824201D9012253
:101A900000E000228B89834201D9012300E000236A
:101AA0001A4232D0CA89824201D9012200E00022C2
:101AB0000B8A834201D9012300E000231A4224D07B
:101AC0004A8A824201D9012200E000228B8A8342A5
:101AD00001D9012300E000231A4216D0C98A8142AD
:101AE00013D943240121802003F04AF800218020EB
:101AF00003F0BCF802E0802003F042F8224607A180
:101B0000074808F0C5FF304670BD0121802003F072
:101B1000ADF80121EFE70000201600204225630008
:101B2000601500200020044930220A54401CC0B235
:101B30003228FAD370470000921500200020044993
:101B400020220A54401C3328FBDB00200870704719
:101B5000C415002008B509F0E3FF0D2000900D4BDF
:101B60000A220DA10E4808F093FFC1B20C4807F0FD
:101B700061F9C82001F016FC022008F0E3FC0228FD
:101B800003D3074800783E2801D0012008BD00207B
:101B900008BD00004C0F002025632025732563003D
:101BA000C030002010B5FFF7D5FF0249002088772C
:101BB00010BD0000480F002038B5124A4FF47A7467
:101BC0000128137808D0022814D1012916D0002941
:101BD00010D123F0200005E001290CD0002909D103
:101BE00023F0100010700123064A48210648009493
:101BF00001F024FD38BD43F01000F3E743F020006E
:101C0000F0E70000100000208C3400202DE9F04F98
:101C1000DFF82CA191B000214FF40044AAF8241061
:101C2000AAF82610AAF82810AAF82A10454D0A4644
:101C3000A6103146284601F0F6FC322000F0F0FBF9
:101C40000022E110284601F0EEFC0027322000F0CF
:101C5000E7FB01223146284601F0E5FC322000F086
:101C6000DFFB00223146284601F0DDFC7F1C062FF9
:101C7000ECD3B34600276D4604AE0DF120083220A8
:101C800000F0CEFB012259462E4801F0CCFC322058
:101C900000F0C6FB4FF480412A4801F0BBFCE85538
:101CA0004FF40041274801F0B5FCDFF89C90F05557
:101CB0000421484601F0AEFC08F8070040214846E0
:101CC00001F0A8FC0DF13009002209F8070059467F
:101CD0001C4801F0A8FC7F1C102FD0D3322000F04C
:101CE0009FFB01221103174801F09DFC0020424692
:101CF0004B46295C012904D1BAF824702743AAF87D
:101D00002470315C012904D1BAF826702743AAF85F
:101D10002670115C012904D1BAF828702743AAF86B
:101D20002870195C012904D1BAF82A702743AAF84F
:101D30002A706408401C1028DBD311B0BDE8F08F76
:101D4000201600200018024000100240094B012814
:101D500005D0022807D008A10F4808F099BE00223C
:101D60004FF4805102E000224FF40041184601F088
:101D70005ABC0000000002404572726F723A206F38
:101D800070657261746F72206E6F7420636F72720F
:101D9000656374210000000060150020084B0128D5
:101DA00005D0022806D007A10E4808F071BE012216
:101DB000110301E00122D103184601F034BC0000F8
:101DC000000002404572726F723A206F7065726156
:101DD000746F72206E6F7420636F7272656374210A
:101DE00000000000601500202DE9F041174C00258F
:101DF000174E2079312810D16079B714312804D1D9
:101E000001223946304601F00EFC6079302804D1B9
:101E100000223946304601F006FC2079322811D1E3
:101E200060794FF40047312804D101223946304609
:101E300001F0F9FB6079302804D1002239463046A0
:101E400001F0F1FB2846BDE8F0810000921500206A
:101E5000000002402DE9F04F4FF000092DED048BFA
:101E600081B04FF00A084D4628200BF02DFB834629
:101E700028200BF029FB824628200BF025FB0027A9
:101E800000903C460721052009F05EFD38B9072186
:101E900005200EF047FC0546282800D9282500EE2D
:101EA000105A01221103B8EE408A324801F0BBFB00
:101EB0009FED319B002500BFFFF7A8FE3048808CC6
:101EC0004AF82500FEF7E1FA53EC192BFEF7FCF96E
:101ED000FEF74CFB00EE100A6FF01800474338EE97
:101EE000400A04EB8700BDEEC00A10EE106AC6EB94
:101EF000061101EB810100EBC10444F6206084422D
:101F000000DB04460121204600F042F84BF8254052
:101F100037464FF47A7000F099FA6D1C4545CBD3E3
:101F20000121002000F034F80221002000F030F8F8
:101F3000104C00224FF48051204601F074FB002227
:101F40004FF40041204601F06EFB0EA10F4808F04F
:101F50009FFD4C4600980AF03FFF50460AF03CFFB8
:101F600058460AF039FF01B02046BDEC048BBDE8AD
:101F7000F08F000000000240B43A394371C76B3F54
:101F800020160020504920746573740060150020ED
:101F90002DE9F04740F00100DFF8A8800E4640F43C
:101FA000C0154FF4000701220821404601F03BFB19
:101FB000322000F035FADFF89090012E02D0022E88
:101FC00003D007E00022082101E000220221484658
:101FD00001F029FB322000F023FA00243D4201D019
:101FE000012200E000224021404601F01CFB32208B
:101FF00000F016FA00220821404601F014FB3220BE
:1020000000F00EFA6D0001220821404601F00BFBA2
:10201000322000F005FA641CE4B2182CDED3322022
:1020200000F0FEF9012E08D0022E09D10122022172
:102030004846BDE8F04701F0F6BA01220821F7E76B
:10204000BDE8F087000C0240000002402DE9F04F8F
:102050002DED028B49F6404589B0002428460BF04F
:1020600033FA089028460BF02FFA079028460BF019
:102070002BFA069028460BF027FA039028460BF01F
:1020800023FA834628460BF01FFA8246FFF7BEFD6F
:102090002848B0F82490C18CB0F82880458D0846B7
:1020A000FEF7F3F99FED241B53EC112BFEF70CF90F
:1020B0009FED238B53EC182BFEF778F9FEF756FAB9
:1020C00007462846FEF7E1F99FED1F1B53EC112B45
:1020D000FEF7FAF853EC182BFEF768F9FEF746FA0C
:1020E000FEF718FA05460E463846FEF713FA0A467A
:1020F0008DE80501CDE904564A4615A11D4808F0B2
:10210000C7FC50460AF068FE58460AF065FE039880
:102110000AF062FE06980AF05FFE07980AF05CFE7D
:1021200008980AF059FE09B02046BDEC028BBDE8C4
:10213000F08F000020160020333333333333244034
:1021400000000000E0FFEF4048E17A14AE47244071
:1021500049313A2025752C2056313A20252E3266F9
:102160002C2049323A2025752C2056323A20252E33
:1021700032663B00601500202DE9F04F44F62065E3
:102180006C008BB04FF0000A20460BF09DF90990CF
:1021900020460BF099F9089020460BF095F907902E
:1021A00020460BF091F94FF0C04B06905C46092198
:1021B00005200EF0B7FA06460120FFF7EFFD0220DA
:1021C000FFF7ECFD01223146104605F029F8012207
:1021D0003146022005F024F80A2001F0E3F86F4EA2
:1021E0003079312803D101210846FFF7E5FC307929
:1021F000322803D101210220FFF7DEFC03F09CFC12
:10220000674E0127F7706749F81E0968086165483D
:1022100002F02AFA37700027B046B9464FF4FA6642
:1022200098F8001040460029FAD080F80090FFF797
:10223000EDFC5D48818CADF81010C18CADF8081034
:10224000018DADF81410408DADF80C00012304AAE7
:102250002146564802F050F9A41C012302AA214647
:10226000524802F049F9A41C012305AA21464F480F
:1022700002F042F9A41C012303AA21464B4802F0B4
:102280003BF9A41CB7420DD101210020FFF780FECD
:1022900002210020FFF77CFE0120FFF757FD0220FE
:1022A000FFF754FD7F1CBFB2AF42B9D3012100201C
:1022B000FFF76EFE02210020FFF76AFE0120FFF704
:1022C00045FD0220FFF742FD00210220FFF774FCCC
:1022D00000210120FFF770FC32496FF0010009680E
:1022E0000861304802F0CCF988F80390DFF8C0802C
:1022F0005C460027012304AA21462C4802F0C6F8B8
:10230000A41C012302AA2146284802F0BFF8A41CFD
:10231000012305AA2146254802F0B8F8A41C012390
:1023200003AA2146214802F0B1F8BDF80C10BDF80F
:102330001400CDE90001BDF80830BDF810201DA142
:102340002048A41C08F0A4FB98F8010006F008FD42
:10235000B7FBF6F006FB107018B106E00A2001F09A
:1023600021F80AF095FE4128F8D17F1CBFB2AF4298
:10237000C0D315A1134808F08BFB544606980AF009
:102380002BFD07980AF028FD08980AF025FD09980A
:102390000AF022FD0BB02046BDE8F08F9215002018
:1023A0002400002084330020201600203C3400202C
:1023B0001700002025752C25752C25752C25753BBF
:1023C00000000000601500204F4B000010B50024F5
:1023D00000F078F803F04EFE204610BD0E4801686C
:1023E00021F080710160016841F0807101600B484B
:1023F000016821F001010160016841F00101016003
:102400000021416000BF00BF00BF406808B100204C
:102410007047012070470000FCED00E0001000E074
:1024200031B5084D6C6801F0D5FA0749B0FBF1F001
:1024300000994843009068680099001B8842FAD3CD
:1024400038BD0000001000E000CA9A3B31B5084DCD
:102450006C6801F0BFFA0749B0FBF1F000994843FE
:10246000009068680099001B8842FAD338BD0000CC
:10247000001000E040420F007047000008B509F06E
:102480004FFB0D2000900B4B07220BA10C4808F0CE
:10249000FFFAC1B20A4806F0CDFC022008F052F85B
:1024A000022803D3064800783E2801D0012008BD49
:1024B000002008BD4C0F00202563202573256300F4
:1024C000C030002015484FF48021816100BF00BF5B
:1024D00000BF00BF00BF00BF00BF00BF00BF00BF04
:1024E0000F494FF080520A6000BF00BF00BF00BF1D
:1024F00000BF00BF00BF00BF00BF00BF4FF480524D
:102500000A600421816100BF00BF00BF00BF00BF9F
:1025100000BF00BF00BF00BF00BF704700100240F7
:1025200018180240F0B52DED068B87B00E469FEDD2
:102530009D8ABFEE00AA9FED9C0A0546412804D063
:10254000422814D0432837D123E00020312E06D072
:10255000322E06D0332E06D0342E2DD105E00022A7
:1025600026E0002227E0012222E0012223E00120D0
:10257000312E06D0322E06D0332E06D0342E1BD16B
:1025800005E0022214E0022215E0032210E00322FB
:1025900011E00220312E06D0322E06D0332E06D086
:1025A000342E09D106E0042202E0042203E00522D1
:1025B000002101E0052201217C4B53F8207000EE40
:1025C000907AB8EEE01ADFED7A0A03EB8000412D35
:1025D00061EE209A90ED031AB8EEC11A21EE209A0E
:1025E00090ED091AB8EEC11A61EE208A03D0422D8F
:1025F00001D0432D09D103EBC20000EB810090ED27
:102600000F1AB8EEC11A21EE208A6A4F202097F8DF
:102610005810312946D0322954D0442161F307049F
:10262000652161F30F24672161F31744F5EEC09A29
:1026300060F31F64F1EE10FA01D269EE8A9AB5EEEA
:10264000C09AF1EE10FA01D229EE0A9AF5EEC08A8C
:10265000F1EE10FA01D268EE8A8AB5EEC08AF1EE88
:1026600010FA01D228EE0A8A412D46D0422D44D0DC
:10267000432D42D0322E6BD0332E7CD0342E53D10A
:1026800018EE900AFDF746FF230EC4F30742C4F389
:102690000725CDE90423E4B28DE83300464A47A17B
:1026A0004B4867E06D2161F3070461F30F2469EE85
:1026B000809A29EE009A68EE808A28EE008A60F3FC
:1026C0001744B3E79FED430B51EC100BFDF74EFFA2
:1026D00000EE100A692060F307046E2060F30F24F7
:1026E000632060F3174469EE809A29EE009A68EE41
:1026F000808A28EE008A682098E7787A312818EED8
:10270000100A15D0FDF706FF220EC4F30743CDE9EA
:102710000432C4F30727E4B28DE8930033462A4617
:102720002EA12B4808F0B4F907B0BDEC068BF0BD24
:10273000FDF7F0FE220EC4F30743CDE90432C4F3E3
:102740000726E4B28DE853002A462AA1204811E06A
:1027500019EE900AFDF7DEFE220EC4F30743CDE921
:102760000432C4F30725E4B28DE83300124A13A102
:10277000921F174800E002E008F08AF9D4E719EE4A
:10278000100AFDF7C7FE230EC4F30742CDE9042368
:10279000C4F30725E4B28DE83300074A07A1D21E2F
:1027A0000B48E7E70000000069B7B23EE4120020E2
:1027B000BC74133DDC0D00208E3A00202532733AA4
:1027C00025342E32662025632563256325630000AA
:1027D000C41500207CE61D4CF2248C3F2563256344
:1027E000203D25342E32662025632563256325632D
:1027F000000000002563203D25342E32662025632D
:1028000025632563256300002DE9F05F1446303809
:10281000C2B23039C8B202EB820100EB410001259F
:102820000A9F1E464FF000084FF005094FF0040ABA
:102830004FF0030B372826D2DFE800F01C272F3695
:102840003D454D555D656D7780868D949BA1A7AE06
:10285000B2B7BCC1C6CBD0F0F5FAFFEBEAE9E8E7C6
:10286000E6E5E4E3E2E1E0DFDEDDDCDBDA25D9D832
:10287000D7D6D500B2A1B44808F00AF9257086F879
:10288000008087F80080BDE8F09FB0A1AE4808F056
:10289000FFF8257086F800804EE0AEA1AA4808F047
:1028A000F7F8257035703DE0ACA1A74808F0F0F8C6
:1028B0002570357040E0ABA1A34808F0E9F8257019
:1028C000022030702EE0A9A19F4808F0E1F82570A1
:1028D0000220307030E0A7A19B4808F0D9F825709D
:1028E00086F800B01EE0A5A1974808F0D1F8257041
:1028F00086F800B020E0A3A1934808F0C9F825703D
:1029000086F800A00EE0A1A18F4808F0C1F825705C
:1029100086F800A010E09FA18B4808F0B9F8257058
:1029200086F8009087F80080ADE79CA1864808F003
:10293000AFF8257086F800903D70A4E799A1824811
:1029400008F0A6F80220A7E098A17F4808F0A0F8B8
:1029500084F800B097E797A17B4808F099F884F8CD
:1029600000A090E795A1784808F092F884F80090CC
:1029700089E795A1744808F08BF806208CE095A1B2
:10298000714808F085F8072086E095A16E4808F0A8
:102990007FF884F8008076E7934A94A16A48CAE0F9
:1029A000914A92A115326848C5E08F4A8FA12A3218
:1029B0006548C0E08C4A8DA13F326348BBE08A4A3B
:1029C0008AA154326048B6E0874A88A169325E48DD
:1029D000B1E0854A85A17E325B48ACE0824A83A1A2
:1029E00093325948A7E0A3E09DE097E091E08BE0A7
:1029F00085E07FE079E073E06DE067E061E05BE057
:102A000056E050E04AE042E03BE034E02DE026E0D2
:102A10001FE018E011E00BE005E0FFE7724A73A148
:102A2000A832494887E0704A70A1BD32464882E02A
:102A30006D4A6EA1D23244487DE06DA1424808F053
:102A400027F8082028E06AA13F4808F021F809206B
:102A500022E069A13C4808F01BF80A201CE068A1AC
:102A6000394808F015F80B2016E067A1364808F041
:102A70000FF80C2010E066A1334808F009F80D208B
:102A80000AE065A1304808F003F80E2004E064A1D4
:102A90002D4807F0FDFF0F202070F4E6524A53A1A5
:102AA000E732294847E0504A50A1FC32264842E02C
:102AB0005D4A4EA124483EE05B4A4CA115322248B3
:102AC00039E0594A49A12A321F4834E0564A47A101
:102AD0003F321D482FE0544A44A154321A482AE09C
:102AE000514A42A16932184825E04F4A3FA17E323F
:102AF000154820E04C4A3DA1933213481BE04A4A56
:102B00003AA1A832104816E0474A38A1BD320E4813
:102B100011E0454A35A1D2320B480CE0424A33A1BC
:102B2000E732094807E0404A30A1FC32064802E09B
:102B30003E4A05482DA1BDE8F05F07F0A9BF00009F
:102B40004131203D20000000C41500204132203DCD
:102B5000200000004133203D200000004134203D92
:102B6000200000004231203D200000004232203D84
:102B7000200000004233203D200000004234203D70
:102B8000200000004331203D200000004332203D62
:102B9000200000004333203D200000004334203D4E
:102BA0002000000041203D200000000042203D2088
:102BB0000000000043203D20000000004120537928
:102BC0006E203D2000000000422053796E203D2001
:102BD00000000000432053796E203D2000000000DB
:102BE000202020200000000038370020257300003E
:102BF00020202020202000003161203D2000000006
:102C00003162203D200000003261203D20000000A4
:102C10003262203D200000003361203D2000000092
:102C20003362203D20000000493800205A3900203E
:102C300030B5264A1E2185B0D378442B42D1137972
:102C4000A3F13004092C03D9412B01D0422B39D1F7
:102C500000216B4655186D795D54491C1429F9DB28
:102C60001946132C29D2DFE804F00A0C0E101215B5
:102C7000181B1D2028282828282828232600144827
:102C80001BE0144819E013480DE012480EE011480B
:102C90003C3012E00F4850300FE00E4864300CE03A
:102CA0000D480AE00C48143007E00B48283004E0D7
:102CB00007481B3001E006480D30FDF7E2FA03F04B
:102CC000D9F9002105B0084630BD0000921500205A
:102CD0004C0F0020940E00200C0F0020134A10B55A
:102CE00091783139062914D2DFE801F00305080B89
:102CF0000E110F480DE00E48C01C0AE00C48801D64
:102D000007E00B48093004E009480C3001E00848AE
:102D10000F3000215318491CDB7800F8013B0329D0
:102D2000F8D303F0A7F9002010BD00009215002091
:102D3000080E002010B51E240E21032008F004FE0A
:102D400008BB042103200DF0EDFC104C062120707F
:102D500005200DF0E7FC6070082107200DF0E2FC73
:102D6000A0700A2109200DF0DDFCE0700C210B2081
:102D70000DF0D8FC20710E210D200DF0D3FC6071F8
:102D800003F078F90024204610BD00001A0000204E
:102D900070470022AFF3008030B50E4B054601208E
:102DA0005C7A002C14D1587A1C54587A03EB8000BA
:102DB00045605D7A03F108002A54587A421C5A7221
:102DC000303008703A2048702F208870CC70002076
:102DD00030BD0000883B002070B5B3F5804F05D0B2
:102DE0006FF0704140F82210002070BD50F8224072
:102DF000084B8E891C40D1E9003543EA05138D68E4
:102E000089692D0245EA06452B430B43234340F8CD
:102E10002230E9E70000F0CFF0B50C6850F824301C
:102E2000114A1340D1E90125D1E903672A433E4302
:102E300032434E6932438E693243CE6932430E6A61
:102E400032434E6A32438E6A3243CE6A3243CE6B8D
:102E5000096B32430A431A43082D01D142F0400264
:102E600040F824200020F0BD8000F0FF30B500EBDA
:102E7000820250688D8900F04043D1E9000440EAA5
:102E800004108C68240244EA054420430C8A074D50
:102E900005EB045420430C7D6D0105EB0464896946
:102EA0002043084318435060002030BD0000F0FF6D
:102EB00008B508F035FE0D2000900D4B01220DA144
:102EC0000E4807F0E5FDC1B20C4805F0B3FF032042
:102ED00007F038FB032808D308484178432902D17A
:102EE0008078462801D0012008BD002008BD0000E0
:102EF0004C0F00202563202573256300C03000207F
:102F000070B506460124FEF70DFE412E1BD00AF0D7
:102F1000BFF81B28F9D1412E18D00AF0B9F86D2856
:102F2000F3D1114D2870412E13D00AF0B1F8285575
:102F3000641CE4B205EB0400322C10F8010C0BD237
:102F40000028F0D10EE00AF043FBE2E70AF040FB74
:102F5000E5E70AF03DFBEAE720B11E20322C00D362
:102F60001E2070BD0020F9E7921500202DE9F047E2
:102F70005D4E5E4DF71DDFF878910024317805EB4A
:102F8000041808EB810004F1310250F8C03C92466D
:102F900058A15C4807F07CFD99F8010005F0E0FEBF
:102FA000386838B105EB8400D0F8D830281990F88B
:102FB000F00009E0307808EB8001284451F8603CCB
:102FC000902101EB8401405C524680464EA14D4861
:102FD00007F05EFD99F8010005F0C2FE4346524637
:102FE0004EA1484807F054FD99F8010005F0B8FEDD
:102FF000641CE4B2761C3F1D062CBFD300244E4651
:1030000001E0032C1CD205EB840704F1310257F8D0
:10301000F83F904645A13B4807F03AFD707805F02F
:103020009FFE424647A13748BB6907F031FD7078E3
:1030300005F096FE2819424690F8283147A11BE07A
:1030400005EB840704F1310257F8F83F904648A198
:103050002C4807F01DFD707805F082FE42464AA11B
:103060002848BB6907F014FD707805F079FE28192F
:10307000424690F828314BA1224807F009FD7078AC
:1030800005F06EFE641CE4B2062CBAD35FF00004B7
:1030900005EB840704F13102904648A11948D7F89E
:1030A000303107F0F5FC707805F05AFE424649A130
:1030B0001448D7F83C3107F0EBFC707805F050FE6F
:1030C0002819424690F8483148A10E4807F0E0FC24
:1030D000707805F045FE641CE4B2032CD8D302F0EE
:1030E000C9FF0020BDE8F087E90D00207C0F00201B
:1030F0001700002041434825635F4741494E3D2565
:10310000303575006015002041434825635F4F4608
:10311000465345543D253035750000004143482550
:10312000635F5349474E3D256300000043555252AB
:103130005F4F50454E25635F4741494E3D25303531
:1031400075000000435552525F4F50454E25635F56
:103150004F46465345543D25303575004355525230
:103160005F4F50454E25635F5349474E3D256300F1
:10317000435552525F434C4F534525635F47414986
:103180004E3D253035750000435552525F434C4F3C
:10319000534525635F4F46465345543D25303575AD
:1031A00000000000435552525F434C4F5345256386
:1031B0005F5349474E3D256300000000414E414C9E
:1031C0004F475F545225635F4741494E3D25303597
:1031D00075000000414E414C4F475F545225635FDC
:1031E0004F46465345543D2530357500414E414CC0
:1031F0004F475F545225635F5349474E3D25630057
:10320000F0B52DED028B83B0002707F0F5F81C4DCB
:10321000A88DFDF73AF99FED1B1B53EC112BFDF721
:1032200053F89FED1A8B53EC182BFDF7BFF8FDF701
:103230009DF90446E88DFDF728F99FED161B53EC28
:10324000112BFDF741F853EC182BFDF7AFF8FDF704
:103250008DF9FDF75FF905460E462046FDF75AF950
:1032600041EC100BCDE9005653EC102B0BA10E488E
:1032700007F00EFC03B03846BDEC028BF0BD000039
:103280002016002033333333333324400000000052
:10329000E0FFEF4048E17A14AE472440252E326625
:1032A0002C20252E32660000601500202DE9F0410B
:1032B0001E2644F6206742F20F780C21042008F005
:1032C00043FBF8B9082104200DF02CFA05460C2127
:1032D00009200DF027FA0446A5B1BD4212D88CB1E1
:1032E00044450FD800200DF0CFFA002605E0304607
:1032F0000BF0DCF90CF084FE2644AE42F7D30CF060
:1033000065FE00263046BDE8F08100002DE9F04161
:103310001D491E200979A1F13003042B20D8002675
:103320001A4D1B4C302908D0312908D0322908D039
:10333000332908D0342915D006E0002204E01422F5
:1033400002E0282200E03C224420207000201118D6
:103350002318695C401C59701428F8D36675002046
:10336000BDE8F0810027E81990F850000BF064F8F0
:103370007F1C302FF7D300200BF05EF80549267034
:1033800031200870EBE70000921500206813002040
:10339000601500202000002010B50CF099FE0020E0
:1033A00010BD000070B5044600F042F90546601CEF
:1033B00002D004480078044400F03AF9401BA042CF
:1033C000FAD370BDB80D0020F0B5204887B0016871
:1033D000002939D1012101601D480024016841F014
:1033E000010101600068022500F0010005904FF620
:1033F0009B70CDE9000502AA03260C2782E8D000C5
:103400006946144800F02EF84FF23F00CDE9000560
:1034100002AA694682E8D0000F4800F023F83F2056
:10342000CDE9000502AA694682E8D0000B4800F009
:1034300019F84FF6B370CDE9000502AA694682E893
:10344000D000074800F00EF807B0F0BD08000020DB
:1034500038380240001002400014024000180240B8
:10346000000C02402DE9F84FDFF87CB100224FF04C
:1034700001084FF0030A4FF00F090BF1040E00BFD3
:103480000B6808FA02F42340A3426ED14D68022D66
:1034900001D0122D0ED1D50800EB850CDCF82050A0
:1034A0005607F70E09FA07F6B5430E69BE402E43DC
:1034B000CCF82060066855000F790AFA05FC07F081
:1034C000030726EA0C06AF40374307604E68012E1B
:1034D00005D0022E03D0112E01D0122E0ED18668F7
:1034E000CF6826EA0C06AF40374387604668A6439C
:1034F0000C79C4F30014944034434460C6688C686B
:1035000026EA0C06AC403443C4604C68E40065D540
:10351000364C256845F480452560246822F0030573
:1035200004F480440094324C2E19D6F808489507CC
:103530002F0F09FA07F5AC432E4DA84201D1002503
:1035400024E02D4DA84201D101251FE02B4DA842BA
:1035500001D102251AE02A4DA84201D1032515E028
:10356000284DA84202D1042510E037E0264DA8429C
:1035700001D105250AE0254DA84201D1062505E027
:10358000234DA84201D1072500E00825BD40254371
:10359000C6F80858DBF800405D464E689C43F603C9
:1035A00000D51C432C60DEF8004075464E689C43F5
:1035B000B60300D51C432C600B4D08352C684E68B3
:1035C0009C43F60200D51C432C60074D0C352C683B
:1035D0004E689C43B60200D51C432C60521C102A36
:1035E000FFF44EAFBDE8F88F003C01404438024084
:1035F0000030014000000240000402400008024088
:10360000000C02400010024000140240001802406A
:10361000001C02400069084000D001207047426948
:103620004A40426170470AB1816170470904FBE773
:103630000148806870470000B80D00202DE9F84F60
:103640001F4690468A460446DDF82890FFF7F0FFB3
:10365000064694F83D0020287ED1192301224349D3
:103660002046009601F041FB00287DD194F83C00F3
:10367000012879D0012084F83C0020680168C9073E
:1036800003D1016841F0010101602068016821F463
:1036900000610160212084F83D00102084F83E0084
:1036A00000252564C4F8248067853148E062608D78
:1036B000208533464A465146204601F08DFA28B10E
:1036C000206C84F83C5004284CD00DE020684169FF
:1036D0008069009030E032464946204601F07AFB8E
:1036E00028B1206C042838D00320BDE8F88F606A28
:1036F000411C6162216800780861608D401E608510
:10370000208D401E80B2208521684A69D24352072D
:103710000BD450B1606A421C626200780861608D0F
:10372000401E6085208D401E208532464946204639
:1037300001F0B4FA0028D4D1208D0028CBD154F860
:103740003D0B016841F400710160202004F81E095E
:10375000E57765770020C8E706E02068016841F456
:10376000007101600120C0E70220BEE702001000E6
:103770000000FFFF024881680278114481607047B1
:10378000B80D00200B4810B5016841F400710160CC
:10379000016841F480610160016841F48071016059
:1037A000032000F06DF8002000F006F800F024F887
:1037B000002010BD003C024070B50D4D04464FF492
:1037C0007A712878B1FBF0F00A490968B1FBF0F092
:1037D00000F0D4FE48B9102C07D200222146501E1A
:1037E00000F02EF800206C6070BD012070BD00005C
:1037F000B80D0020C40D00200A4808B5016841F446
:1038000080410160006800F4804000900548001F7E
:10381000016841F080510160006800F08050009024
:1038200008BD00004438024000F01F020121914011
:103830004009800000F1E020C0F80011704700004E
:10384000F0B40E4B1B680C46C3F30223C3F107050B
:10385000042D00D90425191D072901D2002300E0F9
:10386000DB1E012606FA05F1491E214099409E40C3
:10387000761E16403143F0BC02F0EBBB0CED00E0CD
:10388000064900F0070208684FF6FF03184040EAB7
:103890000220034A10430860704700000CED00E06E
:1038A0000000FA052DE9F0470E46050065D0DFF867
:1038B0001481D8F80000F7B200F00F00B04207D230
:1038C00088F80070D8F8000000F00F00B04254D122
:1038D00028683D4C810712D5400703D5206840F485
:1038E000E05020602878000703D5206840F460404D
:1038F00020602068A96820F0F00008432060287844
:10390000C0072DD0304968680839012812D0022834
:1039100013D0032811D00968890700292DDA2168FE
:1039200021F0030101432160FFF782FE814641F24D
:10393000883A0EE009688903EFE709688901ECE736
:10394000FFF776FEA0EB0901514502D90320BDE83F
:10395000F0872068696800F00C00B0EB810FEFD1B0
:10396000D8F80010404601F00F01B14207D90770A6
:10397000006800F00F00B04201D00120E7E728788E
:10398000400705D52068E96820F4E050084320602E
:103990002878000706D52068296920F4604040EAAD
:1039A000C100206000F03CF82168084AC1F303110F
:1039B000515CC840064908600020FFF7FDFE00206A
:1039C000C5E70000003C024008380240040B010833
:1039D000C40D00200148006870470000C40D00209D
:1039E0000448054900680968044AC1F38221515C12
:1039F000C8407047C40D002008380240140B01086D
:103A00000448054900680968044AC1F34231515C21
:103A1000C8407047C40D002008380240140B01084C
:103A2000154810B5006810F00C02144813D041106E
:103A3000042A0FD0082A0ED10F4C241F22682368B5
:103A400002F03F025B0207D52068C0F38810A0FB9C
:103A5000010106E0084610BD2168C1F38811A1FBF1
:103A600000010023FCF7ACFB2168C1F30141491CB4
:103A70004900B0FBF1F010BD083802400024F4000A
:103A80002DE9F84F050076D02878DFF8F8B2BE4C63
:103A9000C00749D0DBF800105846C1F38101012965
:103AA00008D00068C0F3810002280AD1201D0068F8
:103AB000400206D52068800336D568680028E2D029
:103AC00032E06868B0F5803F10D0B0F5A02F2068D4
:103AD00010D020F480302060206820F48020206006
:103AE0006868A0B1FFF7A4FD06460CE0206840F42A
:103AF0008030F4E740F480202060F7E7FFF798FD7E
:103B0000801B642873D820688003F7D50CE0FFF78A
:103B10008FFD064605E000BFFFF78AFD801B642885
:103B2000F0D820688003F7D42878DFF86082800717
:103B30004FF000093ED5DBF80010584611F00C0F8D
:103B400009D00068C0F3810002280BD18D48001F06
:103B50000068400206D42068800715D5E86801286F
:103B600009D111E0E868B8B10120C8F80000FFF7FA
:103B70005FFD064605E002E1FFF75AFD801B0228C3
:103B8000C0D820688007F7D52068296920F0F800A0
:103B900040EAC10020600DE0C8F80090FFF748FD42
:103BA000064604E0FFF744FD801B02281FD820686A
:103BB0008007F7D42878000722D5724E74486969C7
:103BC0006C3671B101210160FFF732FD074604E058
:103BD000FFF72EFDC01B022809D830688007F7D5F3
:103BE0000EE0C0F80090FFF723FD074605E083E0F4
:103BF000FFF71EFDC01B02287ED830688007F7D46F
:103C00002878400768D5DFF87CA100270AF1380A38
:103C1000DAF80000C0000BD4DAF8001041F080514F
:103C2000CAF80010DAF80000012700F08050009078
:103C3000584E3068C00510D4306840F48070306051
:103C4000FFF7F6FC009005E0FFF7F2FC0099401A40
:103C5000022851D83068C005F6D54A4EA8686836A3
:103C600001280FD00528306810D020F00100306006
:103C7000306820F004003060A868B8B1FFF7D8FCC5
:103C800000900FE0306840F00100F4E740F00400DD
:103C90003060F7E7FFF7CCFC0099411A41F2883019
:103CA000814264D830688007F4D50EE0FFF7C0FC8D
:103CB000009007E0FFF7BCFC0099411A41F2883000
:103CC000814254D830688007F4D42FB1DAF800105C
:103CD00021F08051CAF80010A869C0B3DBF80010C9
:103CE000C1F3810102294AD00228484607D0C8F80A
:103CF0006000FFF79DFC00E039E005463AE04746EA
:103D0000C8F86000FFF794FC064604E0FFF790FC5B
:103D1000801B02282BD820688001F7D4D5E9070141
:103D20000843A96A1C4A490802EB01416A6A41EA50
:103D30008211084395F82C1040EA01611148001FD8
:103D4000016001203866FFF773FC054605E014E0CA
:103D5000FFF76EFC401B022809D820688001F7D5C8
:103D60000BE000BFFFF764FC401B022802D90320D0
:103D7000BDE8F88F20688001F4D40020F8E7012026
:103D8000F6E70000083802400038024000004742D1
:103D9000800E4742007000400000FFFFF0B5426E09
:103DA000120E93090B70C2F383034B7002F00302EF
:103DB0008A70426E120CCA70B0F86420120A0A713E
:103DC00090F864204A71826E4FF6FF73120E03EA78
:103DD0000212CA80826ECB88C2F3074243EA1213F2
:103DE000CB8002F00F020A72B0F86820C2F30722FB
:103DF000D3094B72C2F380138B72C2F34013CB72A0
:103E0000C2F300130B7300264E73446C4FF400771B
:103E100001236CB1012C43D0026840F2FF51916341
:103E2000816B41F08051816380F834300120F0BD16
:103E30009207120D0A6190F868200C6944EA820228
:103E40000A61C26E0C69120E44EA92140C61C2F34C
:103E5000C2040C7502F007024A75C26EC2F3074233
:103E600054098C75C2F38204CC759207520F0A76FE
:103E7000B0F86C20C2F307240A7E42EAD4120A7614
:103E80000A69521C42650D7EAD1CAA4042650D7A3E
:103E900003FA05F585656D0A6A43C0E917271CE03A
:103EA00090F868209206920A0A61C26E0C69120E9E
:103EB00044EA02220A61C26E0C69C2F3074214434B
:103EC0000C61B0F86C20C2F307240A69521C4FEA57
:103ED00082224265C0E916720766C4F3801201F8B7
:103EE000192F4FEA84624FEA52624A7010F86C2F21
:103EF0004C7844EAD2144C7002F07F028A70426817
:103F00004FEA12624FEAD214CC70C2F341140C7122
:103F1000C2F382044C714FEA82724FEA12728A71C4
:103F200042688C79C2F3074244EA92148C71C2F35E
:103F30004014CC710E7202F001024A728288C2F300
:103F400007224FEAD2148C72C2F38014CC72C2F3EF
:103F500040140C73C2F300144C73C2F381048C73CD
:103F600002F00302CA7300794FEA500008744B74E0
:103F70004FF00000F0BD426C0A60826C4A60C26C77
:103F80008A60026DCA60426D0A61826D4A61C26DCB
:103F90008A61006EC8610020704770B50446B0F8B1
:103FA000500000250104206804F0F7F918B1A16B56
:103FB0000143A16304E00021206804F099F805465C
:103FC000C5F3432070BD70B5040004D094F83400EC
:103FD000002510B105E0012070BD2577204600F0D6
:103FE00037F8032084F83400204600F007F8A56372
:103FF0002563012084F83400002070BDFEB5002543
:10400000044676200095CDE901502B462A462946E4
:10401000206804F073F80D4E46F8A05F206804F0A5
:104020007FF8012535600220FFF7BCF9204604F037
:10403000CCFB20B9204604F055FB002805D084F8BD
:104040003450A16B0143A1630120FEBD00802542D5
:10405000F0B587B0044614216846FCF700F91D4905
:104060002068884233D11C480024016841F4006173
:104070000160006800F4006005901748143801687A
:1040800041F004010160016801F00401059101683B
:1040900041F0080101600068022500F00800059069
:1040A0004FF48850CDE9000502AA03260C2782E8C8
:1040B000D00069460948FFF7D5F90420CDE900058D
:1040C00002AA694682E8D0000548FFF7CBF907B09D
:1040D000F0BD0000002C01404438024000080240BE
:1040E000000C02402DE9F04F87B09A4617460E4665
:1040F0000446DDF840B0FFF79BFA00903EB194F81B
:104100003400012807D0A06B40F000500FE0A06BF6
:1041100040F000600BE04FF00008C4F83880E06D1C
:1041200007EB0A01814204D9A06B40F00070A06344
:104130007DE0032084F834002068C0F82C80606C97
:10414000012800D07F024FF40071206804F038F895
:1041500040F2FF59012530B12268C2F83890A16BB6
:104160000143A16361E04FF0FF3001904FEA4A2024
:104170000290902003900220CDE90408069501A941
:10418000206803F09FFFBAF1010F06D902202063D7
:104190003946206804F08AF804E02563394620682F
:1041A00004F09DF80028D7D140F22A382068416BEE
:1041B00011EA080F22D1406B000409D500272068BE
:1041C00003F0B2FF46F827007F1C082FF7D32036F4
:1041D000BBF1000F05D0FFF72BFA0099411A5945A2
:1041E000E4D32168C1F83890A06B40F00040A06390
:1041F00084F83450032007B0BDE8F08F416BC90547
:1042000009D5BAF1010F06D9616C032903D004F076
:10421000F5F80028A0D12068416B090709D5C0F83E
:104220003890A06B40F0080028E084F8345001205A
:10423000E1E7416B890705D5C0F83890A06B40F0E5
:1042400002001BE0416B89061AD5C0F83890A06BBC
:1042500040F0200012E000BF03F066FF01C6BBF192
:10426000000F05D0FFF7E4F90099411A594507D32B
:104270002168C1F83890A06B40F00040A063D4E7FB
:104280002068416B8902E7D42168C1F8389084F82E
:1042900034500020AFE700002DE9F04F87B09A4678
:1042A00016460D460446FFF7C3F906903DB194F853
:1042B0003400012807D0A06B40F000500DE0A06B47
:1042C00040F0006009E00020A063E26D06EB0A0107
:1042D000914204D9A06B40F00070A06390E00321EC
:1042E00084F8341021688146C862606C012800D0CF
:1042F00076024FF40071206803F062FF40F2FF582D
:10430000012730B12268C2F83880A16B0143A16354
:1043100017E0BAF1010F06D920202063314620684A
:1043200004F086F805E0102020633146206804F090
:1043300098F8060008D02168C1F83880A06B304397
:10434000A06384F834705BE04FF0FF3000904FEAD8
:104350004A200190902002904846CDE90407CDF80C
:104360000C90B9466946206803F0ACFE40F21A3B57
:1043700022E0406B40040AD55FF0000705EB87019F
:10438000206803F0E4FE7F1C082FF7D32035109837
:1043900030B1FFF74DF90699411A109881420BD3BD
:1043A0002168C1F83880A06B3043A06384F8349052
:1043B000032007B0BDE8F08F2068416B11EA0B0FB6
:1043C000D7D0416BC9050FD5BAF1010F0CD9616C7B
:1043D000032909D004F012F830B12268C2F83880FD
:1043E000A16B0143A16309E02068416B090709D56E
:1043F000C0F83880A06B40F0080014E084F83490D6
:104400000120D6E7416B890705D5C0F83880A06B3D
:1044100040F0020007E0416BC0F83880C90604D5BF
:10442000A06B40F01000A063E8E784F8349000200F
:10443000BFE770B515460E46040003D094F8490056
:1044400010B107E0012070BD002084F8480020462C
:1044500000F01AF804F108012068FEF7DDFC31468F
:10446000A2682068FEF702FDD4E901022946236B09
:10447000FEF7B2FCA168206850F8212042F001024A
:1044800040F82120002070BDFEF79EBF30B590F8A7
:104490004840012C13D0012480F84840022580F8C0
:1044A00049502BB131F8025B22F8025B5B1EF9D157
:1044B00080F84940002180F84810084630BD0220AD
:1044C00030BD30B590F84840012C13D0012480F85D
:1044D0004840022580F849502BB111F8015B02F8E1
:1044E000015B5B1EF9D180F84940002180F848103B
:1044F000084630BD022030BD30B590F84940042C4C
:1045000017D090F84840012C15D0012480F848407D
:10451000022580F849502BB132F8025B21F8025B8A
:104520005B1EF9D180F84940002180F84810084608
:1045300030BD012030BD022030BD30B590F849407B
:10454000042C17D090F84840012C15D0012480F895
:104550004840022580F849502BB112F8015B01F860
:10456000015B5B1EF9D180F84940002180F84810BA
:10457000084630BD012030BD022030BD10B5401EC0
:10458000B0F1807F01D3012010BD4FF0E0246061C5
:104590000F21601701F05DFD0020A0610720206160
:1045A000002010BD7047704730B590F83820012AC0
:1045B00020D0012280F83820022380F839300368A7
:1045C0005C6824F070045C6003685C680D682C43D0
:1045D0005C6003689C6824F080049C6003689C68AD
:1045E00049680C439C6080F83920002180F838101D
:1045F000084630BD022030BD10B5040003D094F849
:10460000390010B107E0012010BD002084F8380007
:10461000204600F00DF8022084F83900211D2068A2
:1046200005F07EF9012084F83900002010BD00005B
:1046300008B50068B0F1804F12D10A48016841F016
:10464000010101600068002200F0010000901146A5
:104650001C20FFF7F5F8BDE808401C20FFF7E4B880
:1046600008BD0000403802400168CA6842F00102FB
:10467000CA600068016841F00101016000207047D4
:104680000168CA6822F00102CA600068016A41F24A
:104690001112114207D1016A9210114203D101682F
:1046A00021F0010101600020704770B5044690F8C8
:1046B0003800012817D0012584F83850022084F8EA
:1046C00039002068826822F0770222F47F428260FB
:1046D0000868502837D00DDC202859D005DC88B375
:1046E000102841D151E0022070BD302853D040281D
:1046F0003AD13FE060282ED070280BD0B0F5805F13
:1047000003D0B0F5005F2FD110E02068816821F060
:10471000070115E0CB68D1E90121206805F060F9B7
:104720002168886840F0770088601DE0CB68D1E997
:104730000121206805F054F92068816841F4804126
:10474000816011E01EE0CA684968206805F05AF9E6
:104750005021206806E0CA684968206805F063F9BE
:104760006021206805F046F984F83950002084F86B
:10477000380070BDCA684968206805F043F94021D7
:104780002068EFE700212068ECE710212068E9E7C6
:1047900020212068E6E730212068E3E7704770B504
:1047A0000446006801694FF00005C943890715D424
:1047B000C168C943890711D4E91E0161012020762F
:1047C000206880698007204602D0FFF7E7FF04E0F9
:1047D00000F098F8204600F096F8257620680169E8
:1047E000C943490717D4C168C943490713D46FF0B7
:1047F00004010161022020762068806910F4407F66
:10480000204602D0FFF7CAFF04E000F07BF8204604
:1048100000F079F8257620680169C943090716D4A4
:10482000C168C943090712D46FF00801016104206F
:1048300020762068C0698007204602D0FFF7AEFFCF
:1048400004E000F05FF8204600F05DF8257620686F
:104850000169C943C90617D4C168C943C90613D43D
:104860006FF010010161082020762068C06910F403
:10487000407F204602D0FFF791FF04E000F042F8AD
:10488000204600F040F8257620680169C943C90731
:1048900008D1C168C943C90704D1891E01612046F6
:1048A00000F032F820680169C943090609D4C168DB
:1048B000C943090605D46FF0800101612046FFF766
:1048C00071FE20680169C943490609D4C168C9431A
:1048D000490605D46FF040010161204600F02EF832
:1048E00020680169C94389060BD4C168C943890698
:1048F00007D46FF0200101612046BDE87040FFF74A
:1049000052BE70BD7047704707480178012019B149
:10491000064908700649087006490978002901D03F
:10492000054908707047000027000020240000207F
:10493000000000202800002025000020704770B5EE
:10494000040004D094F83900002510B106E00120DD
:1049500070BD84F83850204600F022F8242084F8F6
:1049600039002068C16821F40051C160204605F07B
:1049700085F92068016921F490410161206841694D
:1049800021F02A0141612068C16841F40051C160F1
:10499000E563202084F8390084F83A00002070BDD7
:1049A00010B586B0044614216846FBF758FC14493C
:1049B0002068884221D11348016841F0100101604C
:1049C000006800F0100005900E481438016841F0AE
:1049D000010101600068694600F0010005904FF494
:1049E000C0600090022001900120029003200390FB
:1049F000072004900448FEF735FD06B010BD000006
:104A00000010014044380240000002402DE9F84304
:104A1000044690F83A00994616460D4620284FD194
:104A200095B18EB194F83800012849D0012084F85E
:104A300038000027E763222084F83A00FEF7F8FDEB
:104A4000A6858046E68531E00120BDE8F883E08D4B
:104A5000401EE085A0684346B0F5805F4FF000023D
:104A60004FF020012046CDF8009004D005F05CFA0C
:104A700098B10320E9E705F057FA0028F9D1206939
:104A800000282068406803D0C1B225F8011B0DE062
:104A9000C0F3080125F8021B08E0206900282068FF
:104AA000406801D000F07F0005F8010BE08D002880
:104AB000CDD1202084F83A0084F838700020C4E773
:104AC0000220C2E72DE9F843044690F839001F465A
:104AD00016460D46202850D1A5B19EB194F8380055
:104AE00001284AD0012084F838004FF00008C4F8AB
:104AF0003C80212084F83900FEF79AFDA684814687
:104B0000E68426E00120BDE8F883E08C401EE084C6
:104B1000A0684B46B0F5805F4FF000024FF0800177
:104B20002046009703D005F0FFF9E8B90DE005F045
:104B3000FBF9C8B928882168C0F3080048602069DB
:104B400008B16D1C05E0AD1C03E0216815F8010BF0
:104B50004860E08C0028D8D14B46002240212046F6
:104B6000009705F0E1F908B10320CCE7202084F894
:104B7000390084F838800020C5E70220C3E7FEE74B
:104B800008B5094B5A7861B102435A704FF47A70F4
:104B9000054A00900123521C4E210448FEF74EFDA9
:104BA00008BD8243F1E70000100000208C34002093
:104BB00001684A69D24352050CD46FF480624A619D
:104BC00004210164002140F8301F20224273017348
:104BD0000120704700207047F8B50446C06A1E46A1
:104BE0000D461746042807D0012805D010F5803F50
:104BF00002D0206B122804D12068016841F4807132
:104C00000160134600224FF001112046009600F08B
:104C10006CF8A0B92069B0F5804F12D00620216849
:104C200000EAD51040F0F000086133463A460E49DC
:104C3000204600F08BF838B1206C042811D00320F6
:104C4000F8BD05F0FE0000E0E8B221680861064901
:104C500033463A46891F204600F078F80028EBD109
:104C6000F8BD0120F8BD00000800010008B5094B9F
:104C70005A7961B102435A714FF47A70054A009033
:104C80000123521D44210448FEF7D8FC08BD82438D
:104C9000F1E70000100000208C34002070B51646AB
:104CA0000D4604461AE02046FFF782FF08B10120B6
:104CB00070BD681C12D025B1FEF7BAFC801BA8425B
:104CC0000CD954F8400F40F0200044F8100900209F
:104CD0002060202161732073032070BD206840692B
:104CE000C0434007DFD4002070BD2DE9F0471E46C9
:104CF00090460D460446C1F30747DDF8209012E0C8
:104D0000701C10D02EB1FEF793FCA0EB0900B0424E
:104D100009D9002044F8300F20216173A07320735B
:104D20000320BDE8F0872068012F0AD0806925EABA
:104D300000000004000C06D000214145E0D0002016
:104D4000EFE74069F3E70121F7E700002DE9F047BD
:104D50009A4691460D46044600264FF02008C1F3BE
:104D600007472AE020684069C043400512D4206804
:104D7000016841F40071016021686FF4806048614E
:104D800004202064266384F83D8084F83C60012080
:104D9000BDE8F087B9F1FF3F0FD0B9F1000F05D0A2
:104DA000FEF746FCA0EB0A01494506D944F8306FEE
:104DB00084F80D8026730320EAE72068012F07D0CE
:104DC000D0F8180025EA00000004000CE0D0C9E784
:104DD0004069F7E770B516460D4604461AE02046CE
:104DE000FFF7E6FE08B1012070BD681C12D025B1A6
:104DF000FEF71EFC801BA8420CD954F8400F40F06F
:104E0000200044F8100900202060202161732073E5
:104E1000032070BD20684069C0430006DFD4002035
:104E200070BD70B501244FF47A75FF21204603F060
:104E300009FFFF21204603F005FFFF21204603F074
:104E400001FFFF21204603F0FDFE284607F05AF837
:104E50000121204603F0F6FE3121204603F0F2FE48
:104E60003021204603F0EEFE9D21204603F0EAFEAD
:104E70003221204603F0E6FE9D21204603F0E2FEAB
:104E80003821204603F0DEFE0021204603F0DAFE42
:104E90003A21204603F0D6FE0021204603F0D2FE40
:104EA0002821204603F0CEFE0421204603F0CAFE4E
:104EB0002A21204603F0C6FE0421204603F0C2FE4C
:104EC000641CE4B2052CB0D32846BDE8704007F05E
:104ED00019B8000070B5064600F046F81624064DD5
:104EE000012806D0304601F023F9002803D003281A
:104EF00001D02C70012070BDA400002070B5194DA8
:104F00000646002028700BF0CFFA002430200BF06A
:104F10002DFB642006F0F6FF641CE4B2642CF5D38C
:104F20000BF0B4FA3046FFF7D5FF012E01D038B9A7
:104F30000EE0002803D02878162801D0032070BD89
:104F40000BF0B2FA53200BF011FB0BF09FFA02E0CA
:104F500004F07CFD08B1162070BDFCF723FE002094
:104F600070BD0000A400002008B50CA000680090EF
:104F700006F0D6FD0421684603F05CFF022005F030
:104F8000E1FA022805D3064800783E2803D00D2810
:104F900001D0012008BD002008BD00005343530D7F
:104FA000C03000201D4810B504790721052006F007
:104FB000CBFC00281CD1072105200BF0B3FBB0F57A
:104FC000FA7F15D84C2C1ED007DC412C18D0452C6C
:104FD00013D0472C0CD147210CE04E2C09D0522C79
:104FE00015D0532C04D10BF039FB00BF01F042F86F
:104FF00010BD4E210AF043FB07E006F08FFF04E0EE
:1050000007F0F0F901E008F069F920B9EEE708F0DF
:105010009BFA0028ECD0002010BD00009215002063
:105020002DE9F04FDD4D074693B06868FBF72DFA88
:105030000E4646EC100B04469FEDD91B51EC100BAD
:1050400053EC112BFBF740F9FBF74BFA46EC104BF6
:105050009FEDD51B049053EC112B51EC100BFBF77B
:1050600033F9FBF73EFA46EC104B9FEDD11B059050
:1050700053EC112B51EC100BFBF726F9FBF731FA2F
:1050800046EC104B9FEDCC1B069053EC112B51ECD2
:10509000100BFBF719F9FBF724FA46EC104B9FEDC8
:1050A000C81B079053EC112B51EC100BFBF70CF9BC
:1050B000FBF717FA46EC104B9FEDC31B089053EC1F
:1050C000112B51EC100BFBF7FFF8FBF70AFA46EC3B
:1050D000104B9FEDBF1B099053EC112B51EC100BA3
:1050E000FBF7F2F8FBF7FDF946EC104B9FEDBA1B0E
:1050F0000A9053EC112B51EC100BFBF7E5F8FBF782
:10510000F0F946EC104B9FEDB61B0B9053EC112BB6
:1051100051EC100BFBF7D8F8FBF7E3F90C90642087
:10512000FEF740F906F0FCFC07200D26A7F5D85144
:105130004FF00A0A583908D0A7F51C5010380DD086
:10514000A7F59C40203814D020E018212822CDE972
:105150000002CDE902160023082208E0402139228E
:10516000CDF800A00396CDE90121002308229EA1DD
:1051700009E0722114227020CDE90021CDE9020658
:105180000023082298A19C4805F082FC07219A4838
:1051900003F050FE00244FF0440BA946D5E06420F4
:1051A00006F0B0FE204609F081FA06F089FC0021E5
:1051B000A4B9914853214030412280F800A04670A4
:1051C0008170C2704D220271502242714C22827154
:1051D0004522C27101723A2141720A218648002398
:1051E000864A403032F813703F0A4754491C32F85F
:1051F0001370C9B25B1C4754491CDBB2C9B20C2BFB
:10520000F0D300270DF1340802EB4703B3F918304F
:10521000002B00DA5B4248F827304FEA132C00F8E5
:1052200001C0491CC9B27F1C4354491CFFB2C9B21A
:10523000062FE9D35FF0000302EB4307B7F824C061
:105240004FEA1C2C00F801C0491CBF8CC9B25B1C82
:105250004754491CDBB2C9B2062BEDD392F8463055
:1052600003F03F0382F8463092F846304354491C1D
:10527000C9B2002302EB4307B7F834C04FEA1C2C35
:1052800000F801C0491CBF8EC9B25B1C4754491CC1
:10529000DBB2C9B2032BEDD395F859700023422F2E
:1052A00066D002EB430CBCF83A804FEA182800F8AD
:1052B0000180491CBCF83A80C9B200F80180491C41
:1052C000BCF84080C9B24FEA182800F80180491C98
:1052D000BCF840C0C9B200BF00F801C0491C5B1C4B
:1052E000DBB2C9B2032BDAD36A68521EA24216D1CE
:1052F00000F801A0491CC9B254224654491CC9B245
:1053000000F801B0491CC9B24254491CC9B2532229
:105310004254491CC9B24F224254491CC9B25822B6
:1053200042543548403003F091FD00250DF110073F
:1053300057F82500A04204D103F068FD6420FEF771
:1053400031F86D1C092DF3D3641CD9F804004D46C7
:10535000A0423FF624AF03F059FD0BF097F802206E
:1053600005F0F0F8022811D2022013B0BDE8F08F4A
:1053700000F801B0491CC9B2DC4600F801B0491C74
:10538000C9B200F801B0491CC9B2A5E71A480078B3
:105390003E2801D00120E8E70020E6E7DC0D0020F0
:1053A0009A9999999999B93F9A9999999999C93FCF
:1053B000333333333333D33F9A9999999999D93FFA
:1053C000000000000000E03F333333333333E33F6A
:1053D000666666666666E63F9A9999999999E93F85
:1053E000CDCCCCCCCCCCEC3F2563202563256325EC
:1053F0006325632563000000C030002020160020D4
:105400001FB504466420FDF7CDFF06F089FB32206E
:1054100000EB8400C1B20D22C0F307200023CDE9C8
:105420000212CDE9003008221AA11E4805F030FB17
:1054300007211C4803F0FEFC0121002004F0C4FDFC
:105440001848C821403003F0F5FCC821164803F085
:10545000F1FC0021012004F0B7FD1248E1214030A9
:1054600003F0E8FC1048E121193003F0E3FC0BF0F5
:105470000DF8022005F066F8022802D2022004B0DE
:1054800010BD084800783E2801D00120F7E7002031
:10549000F5E7000025632025632563256325632543
:1054A00063000000C0300020C83100201FB5044652
:1054B0003220FDF777FF06F033FB0D23E2B2C4F391
:1054C000072100208DE80F000346082212A116488C
:1054D00005F0DEFA0721144803F0ACFC06F0F0FA00
:1054E000114812A1403005F0D3FA0F48082140308E
:1054F00003F0A0FC0AF0CAFF022005F023F80228FE
:1055000002D2022004B010BD074800783E2801D026
:105510000120F7E70020F5E72563202563256325B3
:105520006325632563000000C0300020463A303612
:105530002E30302E000000002DE9F0412DED088BBB
:1055400086B00F460546DFEDBD8ABFEE000A06466F
:10555000B0EE688A412804D0422D14D0432D37D1B3
:1055600023E00025312F06D0322F06D0332F06D06E
:10557000342F2DD105E0002126E0002127E0012174
:1055800022E0012123E00125312F06D0322F06D061
:10559000332F06D0342F1BD105E0022114E0022165
:1055A00015E0032110E0032111E00225312F06D080
:1055B000322F06D0332F06D0342F09D106E0042134
:1055C00002E0042103E00521002001E00521012083
:1055D000DFF86CC29CF85830312B19D0DFED99AA56
:1055E000994A412E52F8258000EE908A02EB8508F8
:1055F000F8EE609AD8ED030AB8EE60AAD8ED090A71
:10560000B8EE609A07D0422E05D0432E03D00AE0B0
:10561000DFED8EAAE4E702EBC10101EB8000D0EDE3
:105620000F0AB8EE608AF5EEC09AF1EE10FA01D2D8
:1056300069EE809AB5EEC0AAF1EE10FA01D22AEE18
:1056400000AAB5EEC09AF1EE10FA01D229EE009A46
:10565000B5EEC08AF1EE10FA01D228EE008AE046DB
:10566000312B0CEB850027D0D0F88800FAF70DFF1E
:105670009FED771B53EC112BFAF798FEFAF776FFA4
:1056800000EE100A692060F307046E2060F30F2417
:10569000632060F31744682060F31F6408EB850003
:1056A000D0ED250AF8EE600AF5EEC00AF1EE10FA28
:1056B00018D080EE201A17E0C06FFAF7E6FE9FEDD3
:1056C000661B53EC112BFAF771FEFAF74FFF00EE51
:1056D000100A6D2060F3070460F30F24202060F3AC
:1056E0001744D9E7B0EE681A69EE819A2AEE01AA4A
:1056F00029EE019A28EE018AF4EEEA9AF1EE10FA08
:105700001CDDB5EEC0AAF1EE10FA14D019EE900A25
:10571000FAF700FF9FED521B53EC112BFAF7D4FD63
:1057200041EC1B0B19EE100AFAF7F4FE53EC1B2B9D
:10573000FAF704FF0AD2B0EE689A07E0B0EE688A82
:10574000F0EE489AB0EE48AAB0EE489A412E1DD02D
:10575000422E1BD0432E19D0322F45D0332F58D094
:10576000342F2CD119EE100AFAF7D4FE250EC4F30B
:105770000743C4F30722CDE90001E4B2CDE90242B8
:10578000CDE90435384A39A13D483FE098F8090091
:10579000312818EE100A17D0FAF7BCFE250EC4F314
:1057A0000742C4F307230595CDE90332E4B28DE83F
:1057B00013003B46324633A1314805F069F906B083
:1057C000BDEC088BBDE8F081FAF7A4FE220EC4F30D
:1057D0000743CDE90432C4F30725E4B28DE8330072
:1057E00032462EA1264811E019EE900AFAF792FEF1
:1057F000230EC4F30742CDE90423C4F30725E4B222
:105800008DE83300184A19A1921F1D4805F040F990
:10581000D5E71AEE100AFAF77DFE250EC4F307420B
:10582000C4F307230595CDE90332E4B28DE81300F4
:105830000D4A0EA1D21E1248E8E700000000000049
:10584000DC0D00208FC2753D601200206666A63F09
:105850000000000000408F400000000000002440D5
:10586000666666666666E63F8E3A002025733A25D0
:10587000362E3366202563256325632563000000EB
:10588000C415002025632563203D25342E32662073
:105890002563256325632563000000002563203D03
:1058A00025342E3266202563256325632563000099
:1058B00010B504490448FDF76CFA0249491E087006
:1058C00010BD000003000020F00A010800B51648D2
:1058D00087B04FF020410160144941600021816090
:1058E0001022C160C0E904128161C161130201622A
:1058F000C0E90913C16201634163816341640F2000
:1059000014230090CDE90103CDE903021120CDE974
:105910000501002269460448FEF78BFD002801D0EE
:10592000FDF736FA07B000BD3C340020040100A0AA
:105930002DE9F04F87B014216846FAF790FC6E48C5
:105940000024016841F010010160016801F01001BC
:105950000591016841F020010160016801F020011A
:105960000591016841F004010160016801F0040142
:105970000591016841F001010160016801F0010138
:105980000591016841F002010160016801F0020126
:105990000591016841F040010160016801F040019A
:1059A0000591016841F0080101600068534E00F064
:1059B00008004FF45C650590002229463046FDF74B
:1059C00032FE4F4F0022FF213846FDF72CFEDFF854
:1059D000348101224FF485714046FDF724FE0022F8
:1059E00049F2A0014046FDF71EFEDFF81C9100229F
:1059F00003214846FDF717FE012245F23061484673
:105A0000FDF711FEDFF804A1012211025046FDF757
:105A10000AFEDFF8FCB0002248215846FDF703FEDD
:105A200000224FF448515046FDF7FDFD4420CDE9DA
:105A30000004694637480294FDF714FD00950125DE
:105A4000CDE90154694630460394FDF70BFD680229
:105A5000CDE90004694630460294FDF703FDFF20BE
:105A60000090CDE90154694638460394FDF7FAFCED
:105A700049F2AA100090CDE90154694640460394CA
:105A8000FDF7F0FC5020CDE9000469464046029441
:105A9000FDF7E8FC45F233600090CDE9015469461A
:105AA00048460394FDF7DEFC4AF60810CDE90004F1
:105AB000694648460294FDF7D5FC4CF6C040CDE956
:105AC0000004694650460294FDF7CCFC4FF44C505C
:105AD0000090CDE90154694650460394FDF7C2FC9D
